:100000000C94A31F0C94D41F0C94D41F0C94D41FD5
:100010000C94D41F0C94D41F0C94D41F0C94D41F94
:100020000C94D41F0C94D41F0C94D41F0C94D41F84
:100030000C94D41F0C94D41F0C94D41F0C94D41F74
:100040000C94D41F0C941DAC0C94D41F0C94D41F8E
:100050000C94D41F0C94D41F0C9491BF0D9455593B
:100060000C94D41F0C94C5720C94D41F0C94D41F00
:100070000C94D41F0C94D41F0C94D41F0C948D405A
:100080000C94D41F0C94D41F0C94D41F0C94D41F24
:100090000C94D41F0C94D41F0C94D41F0C9480F691
:1000A0000C94D41F0C94D41F0C94D41F0C94D41F04
:1000B0000C94D41F0C94D41F0C94D41F0C94D41FF4
:1000C0000C94D41F0C94D41F0C94D41F0C94D41FE4
:1000D0000C94D41F0C94D41F0C94D41F0C94D41FD4
:1000E0000C94D41FD831DB31DF31E331E731EB3110
:1000F0004F32EF31F331F8314F32FD3103320732F5
:100100000C32103214324F3218321C3222324F323B
:1001100028322E32303232323432363238323A32BB
:100120003C323E32403242324432463248324A3227
:100130004C3237BA64BAB0BADCBA7CBA7CBA7CBA90
:100140007CBA7CBA7CBA2DBB7ABB9CBBFBBF0CC013
:1001500028C035C04FC05CC076C083C0A3C088C370
:1001600088C38BC38EC394C397C39AC39DC3A8C3CC
:1001700091C3A8C3A8C3A8C3A8C3A8C3A8C3A8C33E
:10018000A8C3A8C3A0C3E1018F01AF01AD0129023B
:100190000702470245026D0153022B013702B301EA
:1001A0003502ED017901DD01850157019D01F7015E
:1001B000D10175013902E5011F0231016B019D0179
:1001C00045011102510123020902390113022101E3
:1001D00095015F0243023B0169020102C50157021A
:1001E000630295019B01CF01A301084AD73B3BCE97
:1001F000016E84BCBFFDC12F3D6C74319ABD568326
:100200003DDA3D00C77F11BED9E4BB4C3E916BAADD
:10021000AABE000000803F05A84CCDB2D44EB9382C
:1002200036A9020C50B9918688083CA6AAAA2ABE13
:10023000000000803F000D94BC240D9466200D94B6
:1002400015510D94EE5A0D9434180D9411550D94CA
:100250003E150D94BF3E0D942C540D943F360D94D5
:10026000302B0D949F5A0D9477570D94EF2F0D94CA
:1002700014550D94E45A0D94035B0D94513B0D9469
:1002800093140D94CB150D94482A0D94B35A0D94E4
:100290006D3B0D94733E0D94FE190D943C3C0D94F2
:1002A000DD2A0D94C75A0D9413370D94111A0D942D
:1002B000585A0D9475460D94D0290D94C1250D946E
:1002C000E2430D9477360D94F3330D94932B0D94F4
:1002D000CF580D94CE580D94A95A0D94C3530D9434
:1002E0008E450D9409580D94A7140D94725A0D94CF
:1002F000BF580D943F5A0D94FB580D94942F0D94B4
:1003000022230D94051A0D94A43B0D944E5A0D947E
:1003100035190D94DE570D94B9140D94C52A0D941A
:10032000C43F0D9460460D948C2C0D942C5B0D9461
:10033000AB2B0D9444490D941F5B0D94D15A0D9431
:100340005E200D949B2F0D94275B0D94A5420D9478
:10035000F1520D949E240D94AA430D94D63F0D9412
:10036000C73F0D9452330D94AC540D9457260D9401
:10037000DD240D948D430D94024B0D94BF460D94D6
:1003800084160D94F0240D94EC2C0D94115B0D94B7
:10039000A4580D94861F0D94BE140D94D42D0D9465
:1003A000235B0D946A5A0D9413360D94CF240D944B
:1003B000DC340D94C4480D94791A0D94445A0D946C
:1003C0007B2B0D94C13F0D9484290D94865A0D9476
:1003D000161A0D94B9190D945E340D943A5A0D9471
:1003E000BA3A0D9467350D94F3180D94A82A0D941C
:1003F000625A0D942B2A0D94E1350D9491310D9490
:1004000083320D940B5B0D9416140D94DF380D940C
:10041000F23F0D94F55A0D94E61F0D94C1300D94E2
:10042000952A0D94BD5A0D94E85A0D9421300D94DF
:10043000602A0D940A2C0D948A3F0D94C11A0D94D4
:10044000905A0D94C8440D94F25A0D94481A0D9484
:10045000A95B0D94D93F0D94331B0D9439590D941C
:10046000782A0D9486290D9404400D94CA540D9455
:100470004A540D947C5A0D94FD420D94F94B0D9401
:10048000D22F0D9434270D94FD5A0D94A7530D943B
:10049000F53F0D94193D0D94AC580D9489430D947E
:1004A000553B0D94F03B0D94E7530D94FB500D9488
:1004B000155B0D945A140D9466170D945C230D94DE
:1004C000F95A0D94B64D0D94195B0D94973A0D940D
:1004D000AC140D94075B0D94CF3E0D94F3350D9441
:1004E000B2140D94CF174D383420582059205A207B
:1004F000450043616E6E6F7420656E746572207383
:1005000075626469723A20004D3234004D323320F6
:100510002573006175746F25692E67006572726FAF
:10052000722077726974696E6720746F2066696CD7
:10053000650043617264206572726F723A004E6F9B
:1005400074205344207072696E74696E67002F00C6
:100550005344207072696E74696E672062797465A5
:1005600020002E0044656C6574696F6E20666169B9
:100570006C65642C2046696C653A200046696C65A0
:100580002064656C657465643A002E006F70656E5A
:10059000206661696C65642C2046696C653A2000B0
:1005A00057726974696E6720746F2066696C653A6A
:1005B00020002E006F70656E206661696C65642C8A
:1005C0002046696C653A20002E006F70656E2066CB
:1005D00061696C65642C2046696C653A2000466947
:1005E0006C652073656C6563746564002053697A7B
:1005F000653A200046696C65206F70656E65643AE7
:1006000020002E006F70656E206661696C65642C39
:100610002046696C653A200053442063617264206F
:100620006F6B006F70656E526F6F74206661696CDE
:10063000656400766F6C756D652E696E69742066F1
:1006400061696C656400534420696E697420666159
:10065000696C006563686F3A004572726F723A00A8
:1006600048617264636F6465642044656661756C9B
:10067000742053657474696E6773204C6F61646590
:10068000640048617264636F6465642044656661F8
:10069000756C742053657474696E67732073746F1E
:1006A0007265640053697A65206F662074686520FE
:1006B00073657474696E6720696E20656570726F0A
:1006C0006D3A0053746F7265642073657474696E5B
:1006D00067732072657472696576656400204400F2
:1006E0002049002020204D33303120500050494413
:1006F0002073657474696E67733A00205A0020593C
:100700000020204D323036205800486F6D65206F34
:10071000666673657420286D6D293A0020450020B7
:100720005A0020580020420020540020204D323032
:1007300035205300416476616E6365642076617292
:100740006961626C65733A20533D4D696E20666540
:1007500065647261746520286D6D2F73292C205497
:100760003D4D696E2074726176656C2066656564C6
:100770007261746520286D6D2F73292C20423D6DA8
:10078000696E696D756D207365676D656E74207433
:10079000696D6520286D73292C20583D6D6178693D
:1007A0006D756D205859206A65726B20286D6D2F0C
:1007B00073292C20205A3D6D6178696D756D205A22
:1007C000206A65726B20286D6D2F73292C202045BF
:1007D0003D6D6178696D756D2045206A65726B208D
:1007E000286D6D2F73290020540020204D323034A5
:1007F000205300416363656C65726174696F6E3A82
:1008000020533D616363656C65726174696F6E2C22
:1008100020543D7265747261637420616363656C1A
:1008200065726174696F6E00204500205A0020597E
:100830000020204D3230312058004D6178696D75AF
:100840006D20416363656C65726174696F6E202809
:100850006D6D2F7332293A00204500205A0020592F
:100860000020204D3230332058004D6178696D757D
:100870006D2066656564726174657320286D6D2FE7
:1008800073293A00204500205A0020590020204DAD
:10089000393220580053746570732070657220756A
:1008A0006E69743A0053657474696E67732053748B
:1008B0006F726564006563686F3A00544553540D68
:1008C0000A000D0A00556E6B6E6F776E20636F6DB8
:1008D0006D616E643A20000D0A003F005665727328
:1008E000696F6E20322E312E354D202D6265746178
:1008F00020320073696E67756C6172206D6174726D
:100900006978005072696E7465722073746F7070CC
:1009100065642064756520746F206572726F7273F0
:100920002E2046697820746865206572726F722087
:10093000616E6420757365204D39393920746F20DC
:10094000726573746172742E202854656D706572BF
:1009500061747572652069732072657365742E20E9
:1009600053657420697420616674657220726573C2
:1009700074617274696E6729005072696E74657271
:100980002068616C7465642E206B696C6C2829206A
:1009900063616C6C656421006F6B00526573656EFA
:1009A000643A2000456E6473746F70207374696CD0
:1009B0006C20707265737365642061667465722063
:1009C0006261636B696E67206F66662E20456E6498
:1009D00073746F7020737475636B3F00456E64733E
:1009E000746F70206E6F742070726573736564200D
:1009F000616674657220686F6D696E6720646F77D9
:100A00006E2E20456E6473746F702062726F6B651A
:100A10006E3F002200556E6B6E6F776E20636F6DB8
:100A20006D616E643A202200456C656374726F6E6E
:100A30006963735F746573740020423A300020422A
:100A40003A31006F6B20523A004465766963652045
:100A500049442053746F7265643A002200556E6BEE
:100A60006E6F776E20636F6D6D616E643A20220049
:100A70007A5F6D61783A2000795F6D61783A200085
:100A8000785F6D61783A20005A3A00593A00204365
:100A90006F756E7420583A20005A3A00593A002077
:100AA000436F756E7420583A2000453A005A3A0058
:100AB000593A00583A004649524D574152455F4E07
:100AC000414D453A4D61726C696E20556C74696D8B
:100AD000616B6572323B20537072696E7465722F60
:100AE0006772626C206D617368757020666F72202A
:100AF00067656E36204649524D574152455F555203
:100B00004C3A687474703A2F2F7777772E6D656E34
:100B100064656C2D70617274732E636F6D2050521A
:100B20004F544F434F4C5F56455253494F4E3A3105
:100B30002E30204D414348494E455F545950453A67
:100B40004F7665724C6F7264204558545255444537
:100B5000525F434F554E543A310A0020573A002015
:100B6000453A00543A002042403A0020403A0020E2
:100B70002F006F6B20543A002569206D696E2C2080
:100B800025692073656300456E642066696C652085
:100B90006C69737400426567696E2066696C6520D4
:100BA0006C6973740066697474696E674265645534
:100BB00070646174654B41667465723A006669746D
:100BC00074696E674265645570646174654B426513
:100BD000666F72653A006164645F686F6D65696E27
:100BE000675B5A5F415849535D0066697474696E6A
:100BF00067426564006164645F686F6D65696E6714
:100C00005B5A5F415849535D0066697474696E6749
:100C10004265644172726179004732380A4D383456
:100C200000256920686F757273202569206D696ED3
:100C30007574657300446F6E65207072696E7469B7
:100C40006E672066696C65007364206572726F72EE
:100C5000004D32323020532569004D31303620535B
:100C60002569003B4C415945523A004D32352072BE
:100C700065636569766564004D323500736420658F
:100C800072726F72005072696E7465722073746F45
:100C9000707065642064756520746F206572726F72
:100CA00072732E2046697820746865206572726FB1
:100CB0007220616E6420757365204D393939207456
:100CC0006F20726573746172742E202854656D7084
:100CD00065726174757265206973207265736574DD
:100CE0002E205365742069742061667465722072C9
:100CF000657374617274696E6729006F6B004E6F63
:100D0000204C696E65204E756D626572207769743E
:100D10006820636865636B73756D2C204C61737418
:100D2000204C696E653A20004E6F20436865636B06
:100D300073756D2077697468206C696E65206E75B7
:100D40006D6265722C204C617374204C696E653A3B
:100D50002000636865636B73756D206D69736D61E9
:100D60007463682C204C617374204C696E653A2062
:100D7000004C696E65204E756D6265722069732046
:100D80006E6F74204C617374204C696E65204E75D3
:100D90006D6265722B312C204C617374204C696E2E
:100DA000653A20004D31313000446F6E652073612B
:100DB00076696E672066696C652E006F6B004D3238
:100DC0003900706C61696E466163746F723A0070CD
:100DD0006C61696E466163746F723A002020506CDA
:100DE000616E6E657242756666657242797465738E
:100DF0003A20002046726565204D656D6F72793A24
:100E00002000417567203134203230313500436F86
:100E10006D70696C65643A200056657273696F6E17
:100E200020322E312E354D202D6265746120320026
:100E3000207C20417574686F723A200041756720EC
:100E4000313420323031352031353A35383A323785
:100E500000204C61737420557064617465643A209D
:100E600000312E302E30004D61726C696E200020F2
:100E7000536F6674776172652052657365740020E4
:100E80005761746368646F672052657365740020EE
:100E900042726F776E206F757420526573657400AF
:100EA0002045787465726E616C20526573657400BC
:100EB000506F776572557000737461727400656E5F
:100EC000717565696E672066756C6C002200656ED1
:100ED000717565696E67202200656E717565696E52
:100EE000672066756C6C002200656E717565696EB1
:100EF000672022004F7574206F66206D656D6F72DC
:100F000079000101010000E0400000E0400000E045
:100F1000400000164300001643000020430000007C
:100F2000000000000000002F4300009642000096E1
:100F30004200002043000096C2000096C20000005C
:100F4000006563686F3A004572726F723A002074F0
:100F50006F6F206C6F6E6720657874727573696F40
:100F60006E2070726576656E7465640020636F6CC8
:100F70006420657874727573696F6E20707265761F
:100F8000656E7465640020746F6F206C6F6E6720EF
:100F9000657874727573696F6E2070726576656EB0
:100FA0007465640020636F6C642065787472757377
:100FB000696F6E2070726576656E74656400656336
:100FC000686F3A0000002110422063308440A55031
:100FD000C660E770088129914AA16BB18CC1ADD17F
:100FE000CEE1EFF13112100273325222B552944227
:100FF000F772D662399318837BB35AA3BDD39CC3CF
:10100000FFF3DEE36224433420040114E664C77472
:10101000A44485546AA54BB528850995EEE5CFF51E
:10102000ACC58DD55336722611163006D776F666C6
:101030009556B4465BB77AA719973887DFF7FEE76E
:101040009DD7BCC7C448E5588668A7784008611892
:1010500002282338CCC9EDD98EE9AFF948896999BE
:101060000AA92BB9F55AD44AB77A966A711A500A66
:10107000333A122AFDDBDCCBBFFB9EEB799B588B0E
:101080003BBB1AABA66C877CE44CC55C222C033CB2
:10109000600C411CAEED8FFDECCDCDDD2AAD0BBD5E
:1010A000688D499D977EB66ED55EF44E133E322E06
:1010B000511E700E9FFFBEEFDDDFFCCF1BBF3AAFAE
:1010C000599F788F8891A981CAB1EBA10CD12DC10C
:1010D0004EF16FE18010A100C230E32004502540A2
:1010E00046706760B9839893FBA3DAB33DC31CD302
:1010F0007FE35EF3B1029012F322D23235421452F2
:1011000077625672EAB5CBA5A89589856EF54FE54D
:101110002CD50DC5E234C324A01481046674476441
:1011200024540544DBA7FAB79987B8975FE77EF7A1
:101130001DC73CD7D326F2369106B0165766767691
:10114000154634564CD96DC90EF92FE9C899E9896D
:101150008AB9ABA94458654806782768C018E108E1
:101160008238A3287DCB5CDB3FEB1EFBF98BD89B41
:10117000BBAB9ABB754A545A376A167AF10AD01A31
:10118000B32A923A2EFD0FED6CDD4DCDAABD8BAD8D
:10119000E89DC98D267C076C645C454CA23C832C81
:1011A000E01CC10C1FEF3EFF5DCF7CDF9BAFBABFE1
:1011B000D98FF89F176E367E554E745E932EB23ED1
:1011C000D10EF01E7C3C3E5E2B3D3F2F5B5D3B2CE9
:1011D0002A225C00534455505352657472696576F7
:1011E00065436C6173733A005344555053536361C4
:1011F0006E506F736974696F6E3A00534455505363
:101200005363616E496E6465780074686520466951
:101210006C65506F736974696F6E3A005344555032
:1012200053506F736974696F6E496E6465783A00E4
:10123000205A3A0020593A0020583A00656E6473EB
:10124000746F7073206869743A200024F4D43050AD
:10125000C38E20C2A24017828B7011127A910D8129
:101260006CD90AA861E108C7586607615143061E98
:101270004B5D05C145A7041A411104093D9803714E
:101280003931034036DB0265339102D43054028099
:101290002E1D02632CEE01752AC501B028A0011095
:1012A0002781018F2564012B244B01E0223401ACFE
:1012B000211F018D200D01801FFC00841EED009771
:1012C0001DDF00B81CD200E61BC600201BBC00645A
:1012D0001AB200B219A8000A19A0006A189900D120
:1012E00017910040178B00B516840031167E00B3AD
:1012F0001579003A157300C7146F0058146A00EE90
:101300001366008813630025135E00C7125B006C30
:1013100012570015125400C111510070114F0021D5
:10132000114B00D61049008D1047004610440002B2
:10133000104200C00F4000800F3E00420F3C0006EC
:101340000F3B00CB0E3800930E37005C0E350027A4
:101350000E3400F30D3200C10D3100900D300060ED
:101360000D2E00320D2D00050D2C00D90C2B00AEDA
:101370000C2900850C29005C0C2700350C27000E79
:101380000C2600E80B2400C40B2400A00B23007DD6
:101390000B23005A0B2100390B2100180B2000F8F9
:1013A0000A1F00D90A1E00BB0A1E009D0A1D0080EC
:1013B0000A1D00630A1C00470A1B002C0A1B0011AF
:1013C0000A1A00F7091A00DD091900C4091900AB4F
:1013D000091900920917007B091800630917004CCE
:1013E00009160036091600200916000A091500F52D
:1013F000081500E0081400CC081400B8081400A474
:10140000081400900813007D0812006B08130058A0
:1014100008120046081200340811002308110012B7
:1014200008110001081100F0071000E0071000D0BB
:10143000071000C0071000B0070F00A107100091AF
:10144000070E0083070F0074070F0065070E005793
:10145000070E0049070E003B070D002E070E002067
:10146000070D0013070D0006070D00F9060C00ED2F
:10147000060D00E0060C00D4060C00C8060C00BCEB
:10148000060C00B0060C00A4060B0099060C008D9B
:10149000060B0082060B0077060B006C060B006142
:1014A000060A0057060B004C060A0042060A0038DE
:1014B000060A002E060A0024060A001A060A001070
:1014C00006090007060A00FD050900F4050900EBFE
:1014D000050900E2050900D9050900D0050900C782
:1014E000050900BE050900B5050800AD050800A501
:1014F0000509009C050800940508008C0508008477
:101500000508007C050800740508006C05070065E7
:101510000508005D050700560508004E0507004751
:101520000507004005080038050700310507002AB7
:10153000050700230507001C050600160507000F18
:101540000507000805060002050700FB040600F574
:10155000040700EE040600E8040600E2040700DBCE
:10156000040600D5040600CF040600C9040600C323
:10157000040600BD040600B7040600B1040500AC73
:10158000040600A6040600A00405009B04060095BE
:10159000040500900406008A040500850405008007
:1015A0000406007A04050075040500700405006B4C
:1015B00004050066040500610405005C040500578D
:1015C000040500520405004D0405004804050043CD
:1015D0000405003E0404003A04050035040500300B
:1015E0000404002C04050027040400230405001E45
:1015F0000404001A04040016040500110404000D7C
:10160000040400090405000404040000040400FCB0
:10161000030400F8030400F4030400F0030400ECE6
:10162000030400E8030400E4030400E0030400DC16
:10163000030400D8030400D4030400D0030400CC46
:10164000030400C8030300C503030024F404D920E5
:101650001BC40C5C0E9804C4095F0265077101F499
:1016600005F900FB04B30048048700C10369005872
:1016700003550003034500BE023A008402310053C3
:10168000022A002902250004022000E4011C00C8EF
:10169000011900AF011700980114008401130071B3
:1016A0000110006101100051010E0043010D0036D0
:1016B000010B002B010B0020010B00150109000C90
:1016C00001090003010800FB000800F3000800EB1B
:1016D000000700E4000600DE000600D8000600D285
:1016E000000600CC000500C7000500C2000500BDD3
:1016F000000400B9000400B5000400B1000400AD0E
:10170000000400A9000400A5000300A20003009F3C
:101710000004009B00030098000300950002009362
:10172000000300900003008D0002008B000300887E
:101730000002008600020084000300810002007F96
:101740000002007D0002007B0002007900020077A9
:1017500000010076000200740002007200010071B6
:101760000002006F0002006D0001006C0002006AC0
:1017700000010069000200670001006600010065C9
:1017800000010064000200620001006100010060CD
:101790000001005F0002005D0001005C0001005BD1
:1017A0000001005A000100590001005800010057D3
:1017B00000010056000100550001005400010053D3
:1017C00000000053000100520001005100010050D0
:1017D0000001004F0001004E0000004E0001004DCE
:1017E0000001004C0001004B0000004B0001004ACA
:1017F00000010049000100480000004800010047C6
:1018000000010046000000460001004500000045C0
:1018100000010044000100430000004300010042B9
:1018200000000042000100410000004100010040B2
:101830000001003F0000003F0001003E0000003EAC
:101840000001003D0000003D0001003C0000003CA4
:101850000000003C0001003B0000003B0001003A9A
:101860000000003A00010039000000390001003892
:101870000000003800000038000100370000003789
:10188000000100360000003600000036000100357F
:101890000000003500000035000100340000003475
:1018A000000000340001003300000033000000336A
:1018B000000100320000003200000032000100315F
:1018C0000000003100000031000100300000003055
:1018D000000000300001002F0000002F0000002F4A
:1018E0000000002F0001002E0000002E0000002E3E
:1018F0000001002D0000002D0000002D0000002D33
:101900000001002C0000002C0000002C0000002C26
:101910000001002B0000002B0000002B0000002B1A
:101920000001002A0000002A0000002A0000002A0E
:101930000001002900000029000000290000002902
:1019400000000029000100280000002800000028F5
:1019500000000028000000280001002700000027E8
:1019600000000027000000270000002700010026DB
:1019700000000026000000260000002600000026CF
:1019800000010025000000250000002500000025C2
:1019900000000025000000250001002400000024B4
:1019A00000000024000000240000002400010023A7
:1019B000000000230000002300000023000000239B
:1019C000000000230000002300010022000000228C
:1019D000000000220000002200000022000000227F
:1019E0000001002100000021000000210000002172
:1019F0000000002100000021000000210001002063
:101A00000000002000000020000000200000002056
:101A10000000002000000020000000200001001F46
:101A20000000001F0000001F0000001F0000001F3A
:101A30000000001F0000001F0001001E0000001E2B
:101A40000000001E0000001E0000006563686F3A81
:101A5000003A2045787472756465722073776974F2
:101A600063686564206F66662E204D494E54454D6F
:101A700050207472696767657265642021003A209E
:101A800045787472756465722073776974636865EC
:101A900064206F66662E204D415854454D50207489
:101AA0007269676765726564202100457874727594
:101AB000646572207377697463686564206F666615
:101AC0002E2054656D70657261747572652064694D
:101AD00066666572656E6365206265747765656EBE
:101AE0002074656D702073656E736F7273206973F7
:101AF00020746F6F20686967682021004D37373781
:101B0000205025690D0A004D373736205025690DC4
:101B10000A004D373735205025690D0A004D3737FB
:101B200030205325690D0A00202D20496E76616C06
:101B30006964206578747275646572206E756D6273
:101B40006572202100504944204175746F74756E90
:101B5000652066696E69736865642120507574201C
:101B6000746865204B702C204B6920616E64204B9B
:101B70006420636F6E7374616E747320696E746F2A
:101B800020436F6E66696775726174696F6E2E6847
:101B900000504944204175746F74756E652066610C
:101BA000696C6564212074696D656F7574002040EF
:101BB0003A006F6B20543A006F6B20423A00504954
:101BC00044204175746F74756E65206661696C653B
:101BD00064212054656D706572617475726520743E
:101BE0006F6F206869676800204B643A2000204BC3
:101BF000693A2000204B703A200020436C617369E1
:101C0000632050494420002054753A2000204B7531
:101C10003A2000206D61783A2000206D696E3A20EC
:101C20000020643A200020626961733A2000457206
:101C3000726F723A00000000006700010054010753
:101C400000DD010F0094021500C1031C00EC042408
:101C500000FC083E0020116E00A3127800151482CB
:101C60000095158C00E91696007518A000E519AAD4
:101C700000661BB400C11CBE00311EC800921FD2FA
:101C8000000321DC004122E600C723F0003D48F4B8
:101C9000016F7220737769746368206F6666004312
:101CA0006F6E6E6563742074686520506F7765721F
:101CB000003F3F3F00835072696E74005072696E3E
:101CC000742066726F6D20534420636172642E002D
:101CD0004D61696E204D656E7500737570706F7221
:101CE0007440647265616D6D616B65722E63630033
:101CF000436F6E746163743A00526564756E64611B
:101D00006E742054656D700058206F7220592073D6
:101D1000776974636820737475636B0058206F7201
:101D20002059207377697463682062726F6B656EE7
:101D3000005A2073776974636820737475636B004D
:101D40005A207377697463682062726F6B656E00E6
:101D500053616665747920636972637569740048BC
:101D60006561746572206572726F720054656D7082
:101D70002073656E736F72204245440054656D7028
:101D80002073656E736F72004552524F52202D20A2
:101D900053544F50504544003232000000000000C0
:101DA000C0C0404040404040404040404040404033
:101DB0004040404040404040404040404040404023
:101DC0004040404040C0C000000000000000000053
:101DD0000000FF000000000000C0C0C0C0C0C0C0C4
:101DE000C0C0C0C0C0C0C0C0C0C0C0C0C0E020E053
:101DF000C0C0000000000000FF0000000000000064
:101E000000000000FF0000000000000101010101CE
:101E10000101010101018181810101010101010330
:101E200002030101000000000000FF0000000000AC
:101E3000000000000000FF0000000000000707078E
:101E400007070707070707070F080F070707070711
:101E5000070707070707000000000000FF00000059
:101E60000000000000000000FF0000000000001C57
:101E70001C1C3E223E1C1C1C1C1C1C1C1C1C1C1C58
:101E80001C1C1C1C1C1C1C1C000000000000FF0073
:101E9000000000000000000000001F1810101010CB
:101EA0001010101010101010101010101010101032
:101EB000101010101010101010101010101010181A
:101EC0001F000000000000000000000000000000F3
:101ED0000000000000000000000000000000000002
:101EE00000000000000000000000000000000000F2
:101EF000000000000000000032320000000000E09E
:101F00006020202020202020202020202020202091
:101F100020202020202020202020202020202020C1
:101F20002020202060E000000000000000000000F1
:101F300000FF0000000000000000000002060E1E6E
:101F40003E7EFEFEFCF8F0E0C080000000000000D5
:101F500000000000000000FF000000000000000082
:101F6000000000FF000000FEFCF8F0E0C080000070
:101F7000000000000001FFFFFFFFFFFF80000000E6
:101F8000000000000000000000FF00000000000052
:101F90000000000000FF000000000103070F1F3FCA
:101FA0003F3F3F3F3F3F3F7FFFFFFFFFFFFFFFFF01
:101FB000FEFCF8F0E0C08000000000FF0000000020
:101FC00000000000000000FF000000000000000012
:101FD00000000000000000000000000103070F1FC8
:101FE0003F7FFFF7E3C1E3F77F3F000000FF000002
:101FF0000000000000000000000F0C08080808089E
:102000000808080808080808080808080808080850
:1020100008080808080808080808080808080C0F35
:1020200000000000000000000000000000000000B0
:1020300000000000000000000000000000000000A0
:102040000000000000000000000000000000000090
:10205000000000000000000032320000000000C05C
:10206000C0404040404040404040404040404040F0
:102070004040404040404040404040404040404060
:1020800040404040C0C000000000000000000000D0
:1020900000FF000000000000000000008080808041
:1020A00080808080FC808080808080808000000034
:1020B00000000000000000FF000000000000000021
:1020C000000000FF0000000000000000000003FF0F
:1020D000FFFFFFFFFF01FF01FFFFFFFFFFFF030007
:1020E000000000000000000000FF000000000000F1
:1020F0000000000000FF00000000000000000000E1
:1021000000000103070F1F387F381F0F070301006E
:102110000000000000000000000000FF00000000C0
:1021200000000000000000FF000000E0E0E0E0C070
:10213000F0FCFCFEFEFFFFFFFFFFFFFFFFFFFFFFC6
:10214000FEFEFCFCF0C0E0E0E0E0000000FF00006C
:102150000000000000000000001F181010111111F5
:10216000111010101010101010101010101010106E
:102170001010101010101010111111111010181F44
:10218000000000000000000000000000000000004F
:10219000000000000000000000000000000000003F
:1021A000000000000000000000000000000000002F
:1021B000000000000000000080150000000000800A
:1021C000C0C0E0E0E0E0E0E0C0C0800000E0E0E0AF
:1021D000E0E0E00000E0E0E0E0E00000E0E0E0E07F
:1021E000E0E0E0E0E0E0E0E00000E0E0E0E0E0E0AF
:1021F0006060E0E0E0C080000000E0E0E0E0E0E0FF
:10220000E0000000000000000080C0C0E0E0E0E06E
:10221000E0E0C0C080000000E0E0E0E0E0E06060FE
:10222000E0E0E0C0800000E0E0E0E0E0E0E0E0E0EE
:10223000E0C0C080000000000000000000001E7F21
:10224000FFFFFFE1C0C0E1FFFFFF7F1E0000030FA3
:102250003FFFFFFCF0FC3F0F03000000C0FFFFFF4B
:10226000FFFFCCCCC0E1E1E10000C0FFFFFFFFFFBA
:10227000CC1C7FFFFFF7E3C00000C0FFFFFFFFFFA4
:10228000C0C0C0F0F0F000001E7FFFFFFFE1C0C043
:10229000E1FFFFFF7F1E0000C0FFFFFFFFFFCC1C20
:1022A0007FFFFFF7E3C000C0FFFFFFFFFFC0C0E1FB
:1022B000FFFFFF7F3E000000000000000000000064
:1022C0000000010101010101000000000000000008
:1022D00000000101010000000000000001010101F7
:1022E00001010101010101010000010101010101E0
:1022F00001000001010101010000010101010101D2
:1023000001010101010100000000000001010101C3
:1023100001010000000000000101010101010100B4
:10232000000101010101000101010101010101019F
:102330000101000000000000000043414E43454CF5
:10234000007761726E696E673A20696E73696465C1
:1023500020746865207377696674004C63645570F7
:10236000646174654E6F726D616C004C636455708E
:102370006461746557616974696E67004C63645584
:1023800070646174654572726F72496E496E7465EE
:102390007272757074004C63645570646174654545
:1023A00072726F72006E6F74206E6F726D616C204E
:1023B000656E64006932632054696D654F75740001
:1023C00064656661756C7400696963206461746139
:1023D000206572726F720054575F4D525F415242D6
:1023E0005F4C4F53540069696320646174612065D8
:1023F00072726F7200646174610069326354696D56
:10240000654F75740064656661756C740069696315
:10241000207374617274206572726F720054575F1A
:102420004D525F4152425F4C4F53540069696320E3
:102430007374617274206572726F720054575F42D8
:1024400055535F4552524F5200696963207374615E
:102450007274206572726F720064656661756C7467
:1024600000696963206164647265737320657272C8
:102470006F720054575F4D525F4152425F4C4F5351
:1024800054006969632061646472657373206572C6
:10249000726F720054575F4D525F534C415F4E4113
:1024A000434B0069696320616464726573732065DE
:1024B00072726F72006932632054575F4D525F44ED
:1024C0004154415F4E41434B00693263206C636469
:1024D00056657273696F6E0054575F4D525F534C6F
:1024E000415F41434B006932632054696D654F750C
:1024F0007400696E746F2054575F4D525F534C41A6
:102500005F41434B0054575F4255535F4552524F12
:102510005200696963206164647265737320657237
:10252000726F720054575F4D545F534C415F4E4180
:10253000434B00696963206164647265737320654D
:1025400072726F720054575F535441525400693293
:10255000632054696D654F7574006932632073742C
:102560006172742054575F5245505F535441525426
:10257000006932632054696D654F75740069326378
:102580002054696D654F7574000000000000000064
:102590005F00000007000700147F147F14242A7FC7
:1025A0002A1223130864623649552250000503009D
:1025B00000001C2241000041221C00082A1C2A089D
:1025C00008083E0808005030000008080808080005
:1025D0006060000020100804023E5149453E004260
:1025E0007F400042615149462141454B3118141248
:1025F0007F1027454545393C4A4949300171090555
:10260000033649494936064949291E003636000035
:10261000005636000000081422411414141414410A
:10262000221408000201510906324979413E7E1107
:1026300011117E7F494949363E414141227F414146
:10264000221C7F494949417F090901013E4141510D
:10265000327F0808087F00417F41002040413F0150
:102660007F081422417F404040407F0204027F7F68
:102670000408107F3E4141413E7F090909063E4161
:1026800051215E7F09192946464949493101017F97
:1026900001013F4040403F1F2040201F7F20182065
:1026A0007F631408146303047804036151494543AC
:1026B00000007F4141020408102041417F000004D6
:1026C0000201020440404040400001020400205446
:1026D0005454787F4844443838444444203844446F
:1026E000487F3854545418087E0901020814545481
:1026F0003C7F0804047800447D40002040443D00B5
:10270000007F10284400417F40007C041804787C3E
:102710000804047838444444387C14141408081419
:1027200014187C7C080404084854545420043F4482
:1027300040203C4040207C1C2040201C3C4030403D
:102740003C44281028440C5050503C4464544C44A1
:10275000000836410000007F0000004136080008F4
:10276000082A1C08081C2A0808081C3E1C08000629
:1027700009090610181C1810081838180863616C2D
:102780006962726174696F6E2070726F63657373D2
:102790002E0067656E746C7920746F20646F2074EE
:1027A000686500746F756368207468652062756978
:1027B0006C64706C61746500546865204E6F7A7A41
:1027C0006C652077696C6C00332F31300041424FCB
:1027D0005254004D38340066726F6D206E6F7A7AF5
:1027E0006C652E2E2E006D6174657269616C2065BA
:1027F00078697473005075736820627574746F6EB5
:10280000207768656E00382F3130005245414459B9
:10281000202020004C6F6164696E67206D617465D3
:102820007269616C2E2E2E00372F313000616E647C
:10283000207468656E207075736820627574746F9B
:102840006E2E006472697665642062792065787402
:10285000727564657200657874727564657220754E
:102860006E74696C20697420697300496E736572B7
:1028700074206D6174657269616C20696E746F009B
:10288000362F3130005245414459202020006D61DF
:1028900074657269616C206C6F6164696E67007049
:1028A00072696E74686561642068656174696E67D9
:1028B00020666F7200506C65617365207761697482
:1028C0002C00352F313000746F207072696E7420C7
:1028D00069742100616E642070726573732074687E
:1028E0006520627574746F6E006F6E207468652069
:1028F00053442D636172640053656C656374206199
:10290000207072696E742066696C650031302F31F9
:1029100030004C45542753205052494E54005265C4
:102920006164696E6720636172642E2E2E003130FF
:102930002F313000796F7572204F7665724C6F724F
:10294000642E2E2E00746861742063616D6520779B
:1029500069746800506C6561736520696E73657297
:10296000742053442D636172640031302F31300084
:102970006D616B652061203344205072696E742153
:102980000049276D2072656164792E206C6574277B
:102990007300392F313000434F4E54494E55450096
:1029A000534B495000746F20636F6E74696E756588
:1029B0002E0070757368206D6964646C65206275A3
:1029C00074746F6E00696E73657274206D617465E6
:1029D0007269616C2E004E65787420737465702086
:1029E000697320746F00342F313000434F4E5449C7
:1029F0004E554500534B4950006973206C65667411
:102A00002061726F756E642069742E006361736556
:102A10002074686174206D6174657269616C005026
:102A200072696E74686561642068656174696E6757
:102A300020696E00322F31300043414E43454C0037
:102A400047323900746F20636F6E74696E7565006C
:102A50005072657373206D6964646C65206275746F
:102A6000746F6E0073746172747570206F66204F9E
:102A70007665724C6F7264210057656C636F6D658B
:102A800020746F2074686520666972737400312F3A
:102A9000313000434F4E54494E5545004445464160
:102AA000554C5400830082004F00830082004F0089
:102AB000830082004F00200020002000444F4E453C
:102AC000004465766963652049443A00566572732F
:102AD000696F6E20322E312E354D202D6265746166
:102AE00020320041756720313420323031352031B9
:102AF000353A35383A33330052657475726E003F9B
:102B00003F3F004D6174657269616C207365747438
:102B1000696E67730052657472616374696F6E20C9
:102B200073657474696E67730052657475726E00B4
:102B30003F3F3F004D6174657269616C207365743D
:102B400074696E67732E0052657472616374696F85
:102B50006E2073657474696E67732E0052657475A8
:102B6000726E20746F20416476616E6365642E001E
:102B70003F3F3F005265636F7665722073706565F5
:102B800064005265747261637420737065656400DB
:102B900052657472616374206C656E67746800526C
:102BA000657475726E006D6D2F736563006D6D2FAA
:102BB000736563006D6D006D6D2F73656300526505
:102BC000636F766572207370656564006D6D2F7339
:102BD0006563005265747261637420737065656427
:102BE000006D6D0052657472616374206C656E6770
:102BF00074680052455452414354494F4E00536546
:102C00007474696E6773003F3F3F008343616C6972
:102C10006272617465008252656C6F6164003F3F4F
:102C20003F004C6576656C2074686520506C61745B
:102C3000666F726D2E004368616E6765207468650B
:102C4000204D6174657269616C2E003F3F3F0080CA
:102C500041626F7574008053657474696E677300A8
:102C6000804D6F76656D656E74008254656D70651C
:102C7000726174757265003F3F3F0041626F757409
:102C80002E0053657474696E67732E004D6F766500
:102C90006D656E742E004368616E676520746865AB
:102CA0002054656D70657261747572652E003F3FCA
:102CB0003F0046616E20737065656400486561740D
:102CC0007570206E6F7A7A6C650052657475726EDD
:102CD000003F3F3F0025008143008143005265745F
:102CE00075726E20746F20416476616E6365642E28
:102CF0000081430081432F00436C69636B20746F34
:102D00002072657475726E004E6F7A7A6C652074ED
:102D1000656D70657261747572653A002500466173
:102D20006E2073706565640054656D7061747572B2
:102D300065003F3F3F004D6F7665204D61746572C1
:102D400069616C00486F6D6520486561640052657B
:102D50007475726E003F3F3F004D6F76652074685A
:102D600065204D6174657269616C2E00486F6D65F8
:102D70002074686520486561642E00526574757220
:102D80006E20746F20416476616E6365642E0081ED
:102D9000430081432F00436C69636B20746F207282
:102DA000657475726E00507265737320446F776E30
:102DB00020746F2065787472756465005072657355
:102DC0007320555020746F207265747261637400B3
:102DD0004E6F7A7A6C652074656D7065726174757A
:102DE00072653A004732380A4D3834004D6F7665C7
:102DF0006D656E74003F3F3F0056657273696F6E7C
:102E0000004D616368696E652053746174650046A6
:102E10006163746F727920526573657400526574D2
:102E200075726E003F3F3F0056657273696F6E208A
:102E3000322E312E354D202D626574612032004DC9
:102E4000616368696E652053746174652E00466124
:102E500063746F72792052657365742E00526574C5
:102E600075726E20746F20416476616E6365642EA6
:102E700000746F2064656661756C743F0052657301
:102E800065742065766572797468696E6700594566
:102E900053004E4F006D004D6174657269616C3A6C
:102EA000003A005072696E742074696D653A003A98
:102EB000004C6966652074696D653A0042617474FE
:102EC0006572793A2020202020436861726765642A
:102ED00000426174746572793A2020202043686151
:102EE0007267696E670052657475726E0041626F39
:102EF0007574004D61696E74656E616E6365204D19
:102F0000656E750063616C6962726174696F6E20D1
:102F100070726F636573732E0067656E746C7920D1
:102F2000746F20646F2074686500746F7563682027
:102F3000746865206275696C64706C6174650054B6
:102F40006865204E6F7A7A6C652077696C6C0041F9
:102F5000424F5254006973206C6566742061726F31
:102F6000756E642069742E006361736520746861F6
:102F700074206D6174657269616C005072696E7461
:102F8000686561642068656174696E6720696E00B8
:102F900043414E43454C004732390A4D38340047CF
:102FA0003120583735205930205A302E33204633BF
:102FB000303030002045300A0047393220452D326C
:102FC000300A47312046002045300A0020452D3286
:102FD000300A47312046000A47312046004739323F
:102FE0002045004731204636303030205A35300AEF
:102FF000473120583020592D3635205A353000477A
:103000003238006164645F686F6D65696E675B5A32
:103010005F415849535D004732380A4D38340061EA
:1030200064645F686F6D65696E675B5A5F4158499C
:10303000535D00776F726B732077656C6C2E007533
:103040006E74696C20746865207072696E740074A7
:103050006F206D6F76652074686520686F74656E8B
:103060006400507265737320446F776E206F722016
:10307000555000444F4E4500706C61696E46616367
:10308000746F72206E65773A00706C61696E46618C
:1030900063746F72206F6C643A0066697474696E51
:1030A0006742656441727261790043616C69627262
:1030B0006174696F6E00507265706172696E67202D
:1030C000666F720048656174696E672075702E2E98
:1030D0002E0041424F5254007461726765745F74F0
:1030E000656D70657261747572655F6265640074A8
:1030F0006865206275696C64706C6174653F004D31
:10310000616E75616C6C79206C6576656C00576FCB
:10311000756C6420796F75206C696B6520746F0025
:10312000594553004E4F00746865206275696C64A0
:10313000706C6174653F004175746F6D6174696393
:10314000616C6C79206C6576656C00576F756C648A
:1031500020796F75206C696B6520746F0059455339
:10316000004E4F004D61696E74656E616E6365203F
:103170004D656E750041425300504C41004C6F61EB
:10318000642044656661756C7400437573746F6D7B
:10319000697A650052657475726E004D6F64696678
:1031A00079207468652073657474696E677300258F
:1031B000002046616E3A00814300814300250046AD
:1031C0006C6F773A006D6D003F3F3F0053746F7234
:1031D000652061732070726573657400466C6F774B
:1031E00020250046616E004469616D65746572005A
:1031F000486561746564206275696C64706C6174A3
:10320000650054656D706572617475726500526514
:103210007475726E00250025006D6D00814300817C
:10322000430025004D6174657269616C20666C6FA6
:103230007700250046616E207370656564006D6DD2
:10324000004D6174657269616C204469616D6574DB
:1032500065720081430054656D70657261747572AA
:1032600065004D6174657269616C204465746169C3
:103270006C730053656C6563746564206D6174657F
:103280007269616C3A004F4B004D617465726961FF
:103290006C2053657474696E677300657874727519
:1032A0006465722E006D6174657269616C2066726E
:1032B0006F6D00506C656173652072656D6F76652A
:1032C0000052454144592020200043414E43454C83
:1032D00000526576657273696E67206D6174657200
:1032E00069616C0025002046616E3A0081430081CF
:1032F00043002500466C6F773A006D6D004D4154D8
:10330000455249414C0066726F6D206E6F7A7A6C3F
:10331000652E2E2E006D6174657269616C20657872
:10332000697473005075736820627574746F6E20D1
:103330007768656E00524541445920202000434182
:103340004E43454C00466F7277617264696E672028
:103350006D6174657269616C00616E64207468658A
:103360006E207075736820627574746F6E2E0064C1
:103370007269766564206279206578747275646517
:103380007200657874727564657220756E74696C0C
:1033900020697420697300496E73657274206D61D1
:1033A00074657269616C20696E746F0052454144A6
:1033B000592020200043414E43454C006265207255
:1033C000656D6F7665642E00546865206D61746567
:1033D0007269616C2077696C6C0048656174696E14
:1033E000672066696E69736865642E00434F4E54AA
:1033F000494E554500534B4950006D6174657269E3
:10340000616C206368616E67696E67005072696EF7
:1034100074686561642068656174696E6720666FB1
:103420007200506C6561736520776169742C00557A
:103430006C746947636F64650047436F6465204639
:103440006C61766F723E3E00437572613E3E4D6127
:103450006368696E652073657474696E6700506C8B
:10346000656173652055736520556C746947476FB6
:103470006364650043414E43454C00434F4E5449FD
:103480004E554500556C746947636F64650047434A
:103490006F646520466C61766F723E3E00437572C4
:1034A000613E3E4D616368696E6520736574746941
:1034B0006E6700506C656173652055736520556CAF
:1034C000746947476F6364650043414E43454C0050
:1034D000434F4E54494E5545004261636B0052655F
:1034E0007475726E004E6F20696E666F2061766132
:1034F000696C61626C65006D006D004D6174657290
:1035000069616C3A200054696D653A20003B4D4179
:1035100054455249414C3A003B54494D453A0046C6
:103520006F6C6465720053442043415244003B4633
:103530004C41564F523A556C746947436F6465006D
:103540003B464C41564F523A556C746947436F6441
:1035500065004E6F2066696C657320666F756E64DA
:1035600021004F4B004F4B0052656164696E67202C
:10357000636172642E2E2E00506C65617365206944
:103580006E736572742063617264004E6F205344E1
:103590002D43415244210072656C6561736520437F
:1035A0007573746F6D00666F756E64204375737408
:1035B0006F6D003B545950453A435553544F4D009D
:1035C0003B545950453A00666F756E64206600663C
:1035D0006F756E64206500666F756E642079006695
:1035E0006F756E642078007364206572726F72006C
:1035F000205A002059000A47312058004731205AEC
:10360000004732380A4731310A47312046363030D8
:1036100030205A323030004C617965723A00526580
:103620007472697665496E6465783A003B4C41591D
:1036300045523A0047323800436F64653A005344BC
:103640002D63617264210072656164696E67004573
:1036500072726F72207768696C65005245545552DA
:103660004E20544F204D41494E00473120463330C3
:103670003030205A300A47312046343030205A3218
:1036800030004D3130370A4D323230205334300A59
:103690004D37383020533235350A4D3738312053C5
:1036A000313030000A4731204600205A00205900AE
:1036B0000A47312046333030302058004739322015
:1036C00045002045300A0047393220452D32300A66
:1036D00047312046002045300A0020452D32300A6F
:1036E00047312046000A47312046004739322045FD
:1036F000004731204636303030205A35300A4731C5
:1037000020583020592D3635205A3530000A47319F
:1037100020583020592D3635205A00473120463662
:10372000303030205A0052657472616374696F6E74
:10373000004D6174657269616C20666C6F7700463C
:10374000616E207370656564004275696C64706CAD
:103750006174652074656D702E0054656D706572BE
:1037600061747572650053706565640052657475A7
:10377000726E0025002500814300814300250081F1
:10378000430081432F00436C69636B20746F207288
:10379000657475726E004E6F7A7A6C652074656D13
:1037A00070657261747572653A003F3F3F00526503
:1037B0007472616374205A6C696674005265747225
:1037C000616374207370656564005265747261632F
:1037D00074206C656E6774680052657475726E0053
:1037E0006D6D006D6D2F736563006D6D006D6D0007
:1037F000726574726163745F7A6C696674006D6D72
:103800002F73656300526574726163742073706511
:103810006564006D6D0052657472616374206C653F
:103820006E6774680052455452414354494F4E00EC
:1038300025004D6174657269616C20666C6F77005C
:10384000250046616E207370656564002500507226
:10385000696E742073706565640054554E45004D63
:103860003737342053256C640D0A004D3737332029
:1038700053256C640D0A004D373732205025690DF1
:103880000A002D2D3A2D2D3A2D2D00814300814324
:103890000048656174696E6700746F20636F6E74B1
:1038A000696E756500507265737320627574746F0C
:1038B0006E005072696E74696E673A0054554E45D9
:1038C00000504155534500505245504152455F50BC
:1038D00052494E54494E475F53544F52455F4649F3
:1038E0004E49534800505245504152455F5052494D
:1038F0004E54494E475F53544F52455F4C43445FCB
:10390000434143484500505245504152455F505253
:10391000494E54494E475F53544F52455F53445F9D
:10392000434C4153535F56414C4944415445005028
:103930005245504152455F5052494E54494E475F9F
:1039400053544F52455F53445F434C4153530050CF
:103950005245504152455F5052494E54494E475F7F
:10396000434C4541525F53445550535F504F534968
:1039700054494F4E5F56414C4944415445005052C2
:1039800045504152455F5052494E54494E475F435E
:103990004C4541525F53445550535F504F53495427
:1039A000494F4E00505245504152455F5052494E8A
:1039B00054494E475F494E495400507265706172D8
:1039C00065205072696E74696E673A0057414954B8
:1039D000494E4700507265706172696E6720746F5E
:1039E000207072696E743A0048656174696E672070
:1039F00075702E2E2E0041424F52540053442073B6
:103A0000656172636820746F6F206C6F6E6700531E
:103A1000442072656164206572726F720045455082
:103A2000524F4D2066696C6520706F736974696FC1
:103A30006E0053445550532056616C69646174653F
:103A40002077726F6E6700534455505353746174FE
:103A5000652077726F6E67004D323520666F756E28
:103A600064005A20646F65736E2774206D617463FF
:103A7000680043414E43454C0072656C6561736557
:103A800020437573746F6D00666F756E64204375A7
:103A900073746F6D003B545950453A435553544F1E
:103AA0004D003B545950453A00666F756E64206670
:103AB00000666F756E64206500666F756E64207AAF
:103AC00000666F756E64207900666F756E6420788D
:103AD000007364206572726F7200746865206D6F88
:103AE00064656C2E00596F752063616E2072656D80
:103AF0006F7665005072696E742066696E697368CE
:103B00006564004241434B20544F204D454E5500C3
:103B10008143202020005072696E74657220636FAB
:103B20006F6C696E6720646F776E004241434B2073
:103B3000544F204D454E550050617573696E672E88
:103B40002E2E0057616974696E6700506175736548
:103B500020746865207072696E743F005945530087
:103B60004E4F004D32350053445550534C617374E1
:103B70005A00534455505343757272656E74506FBA
:103B8000736974696F6E004C617965723A003B4CE1
:103B9000415945523A007364206572726F72005346
:103BA0006561726368696E67205344206361726463
:103BB0002E2E2E0041424F5254006D616E75616C85
:103BC0005F7365617263685F73645F6361726400F1
:103BD0004C617965723A003B4C415945523A005369
:103BE0006561726368696E67205344206361726423
:103BF0002E2E2E0041424F5254004732380043755A
:103C00007272656E74205A3A005072657373204464
:103C10006F776E206F72205550004C617374205086
:103C200072696E746564205A3A00434F4E54494E8F
:103C3000554500434F4E54494E55450068656967E8
:103C400068742E006F72206D616E75616C6C7920E6
:103C50007365742074686500436F6E74696E756572
:103C600020746F20726573756D6500434F4E544923
:103C70004E5545004D414E55414C007072696E7471
:103C80003F0077616E7420746F20726573756D6587
:103C90000066696E69736865642E20446F20796FD1
:103CA00075004C617374207072696E7420697320A2
:103CB0006E6F7400594553004E4F00526561646940
:103CC0006E6720636172642E2E2E00506C656173E6
:103CD0006520696E736572742063617264004E6F53
:103CE0002053442D4341524421004732380A4D3875
:103CF0003400473932204525690A47312046256975
:103D00002045300000000A0B02090C0D0E080703C5
:103D1000040100000000000000000000000000009E
:103D20000000000000000000000000000000000093
:103D30001211100000000000000000000000000050
:103D40000000000000000000000001021020200818
:103D500008102040102040800201020108040201E6
:103D60000102040810204080804020100804020155
:103D700080040201804020100804020108040201AE
:103D80000102040810204080010204081020408035
:103D900005050505070508080808020202020A0AC7
:103DA00008080404040401010101010101010303E5
:103DB000030303030303040707070C0C0C0C0C0C90
:103DC0000C0C0202020206060606060606060B0B8D
:103DD0000B0B0B0B0B0B00002200250028002B0007
:103DE0002E003100340002010000050108010B0122
:103DF00000002100240027002A002D00300033009D
:103E000001010000040107010A014E414E494E49DB
:103E10005459494E46CDCCCC3D0AD7233C17B7D197
:103E20003877CC2B329595E6241FB14F0A0000203D
:103E3000410000C84200401C4620BCBE4CCA1B0EBC
:103E40005AAEC59D7400407A10F35A00A0724E1805
:103E5000090010A5D4E80000E87648170000E40B3C
:103E600054020000CA9A3B000000E1F50500008002
:103E7000969800000040420F000000A0860100005C
:103E800000102700000000E80300000000640000AC
:103E90000000000A00000000000100000000002CEB
:103EA00076D888DC674F0823DFC1DFAE59E1B1B7B0
:103EB00096E5E3E453C63AE651997696E8E6C2847D
:103EC00026EB898C9B62ED407C6FFCEFBC9C9F4095
:103ED000F2BAA56FA5F490055A2AF75C936B6CF9BA
:103EE000676DC11BFCE0E40D47FEF520E6B500D090
:103EF000ED902E0300943577050080841E080000A5
:103F0000204E0A000000C80C333333330F986E1272
:103F1000831141EF8D2114893BE65516CFFEE6DB78
:103F200018D1844B381BF77C1D901DA4BBE42420C2
:103F30003284725E228100C9F124ECA1E53D2700A4
:103F40009D722D02C27211241FBECFEFD1E2DEBFDF
:103F5000CDBF00E00CBF14E0A0E0B2E0E0E2F8ED7D
:103F600002E00BBF02C007900D92A03BB107D9F74A
:103F70002BE1A0EBB4E001C01D92A933B207E1F739
:103F80001FE3C4E4DFE300E006C022970109FE015D
:103F90000BBF0F942561C034D10780E00807A9F753
:103FA0000F949C5B0D94FE6B0C940000FC0114823A
:103FB00017821382128288EF93E0918380830895A1
:103FC00028EF33E0FC01318320832781222319F07D
:103FD00004960C94C29F0895CF92DF92EF92FF92C5
:103FE0000F931F93CF93DF93EC01C196DFDFCE01D8
:103FF0008E5A9F4FDBDF7E0121E7E20EF11C870125
:104000006E0139E5C31A3EEFD30AC801CFDF015E66
:104010001F4F0C151D05C9F7FE01E755FE4F89E13D
:10402000818314823596178ACE0184539E4FBEDF5A
:10403000FE01E551FE4F10821182128213823896E2
:1040400010821182128213821A821B8218AA18828D
:1040500019826E0181E1C81A8EEFD80AF60110822A
:10406000118212821382F801108286E391E0F70137
:104070009C01119221503040E1F7FE01E950FE4FC2
:1040800081E080831FA61EA60F949F5968577C4E1F
:104090008F4F9F4FF6016083718382839383DF91FB
:1040A000CF911F910F91FF90EF90DF90CF900895E7
:1040B000FC0120E03EE2DB014C91403241F028302F
:1040C00011F430833196DB014C91408331962F5FA0
:1040D0006F5F7F4F2B3079F7108208953F924F9298
:1040E0005F926F927F928F929F92AF92BF92CF9288
:1040F000DF92EF92FF920F931F93CF93DF93CDB791
:10410000DEB7C758D1090FB6F894DEBF0FBECDBFDA
:104110008C016B017A01312C84E0E80EF11C28013E
:10412000E2E14E0E511C5801F8E0AF1AFEEFBF0A53
:10413000480186E0881A8EEF980A80E4682E712C78
:104140006C0E7D1EE4E06E0E711CA201BE016F5F5D
:104150007F4FC7010E942B9E18160CF021C12C85A1
:10416000322F3871303109F09CC0F5018081918186
:104170000197029708F495C0BE016F5F7F4FCE0193
:1041800087589F4F95DFA0961FAEA097F6018081BC
:10419000811107C06AEC72E0CE01815A9F4F0F94E3
:1041A0000266B601CE01815A9F4F0F940266BE018E
:1041B00067587F4FCE01815A9F4F0F9402666AEC79
:1041C00072E0CE01815A9F4F0F940266CE01805C4F
:1041D0009F4FECDE21E0AE0147585F4FB701C301AE
:1041E0000E94BBA1811139C0F50180819181892B89
:1041F000A1F5E3E5F6E08491882341F09091C000B9
:1042000095FFFCCF8093C6003196F5CFECECF2E041
:104210008191882339F09091C00095FFFCCF809365
:10422000C600F6CF8091C00085FFFCCF8AE0809366
:10423000C600FE01E758FF4F8191882339F0909125
:10424000C00095FFFCCF8093C600F6CF8091C000E0
:1042500085FFFCCF8AE08093C6008BE1FE01EC5B1A
:10426000FF4FDE01959601900D928A95E1F7249615
:104270008EAD9FAD24979CA38BA388EF93E09AA368
:1042800089A3AE014F5D5F4FBE01615A7F4FC801E8
:1042900025DFCE01819694DECE01805C9F4F90DEBB
:1042A00054CF8981882309F47BC0853E09F44DCF22
:1042B0008E3209F44ACF8F3509F447CFF80182894D
:1042C000882331F08E3209F440CF8F3509F43DCF89
:1042D00023FD3BCF81E0303109F080E0F80185A774
:1042E000811108C08985873409F02FCF8A858E37E0
:1042F00009F42BCF98012B5F3F4FBE016F5F7F4FBB
:10430000C901CA57DF4F2883C658D040C957DF4F6D
:104310003883C758D040CCDEF50180819181CA57DF
:10432000DF4F2881C658D040C957DF4F3881C75862
:10433000D0400097F1F4F6018191882339F09091F3
:10434000C00095FFFCCF8093C600F6CFF9018191A4
:10435000882339F09091C00095FFFCCF8093C60070
:10436000F6CF8091C00085FFFCCF8AE08093C60025
:10437000ECCE8130910539F4F40180819181019670
:1043800091838083E2CE029709F0DFCE232D30E0C7
:10439000F401808191812817390711F03394D5CE2B
:1043A000C957DF4F0FB6F894DEBF0FBECDBFDF9108
:1043B000CF911F910F91FF90EF90DF90CF90BF9022
:1043C000AF909F908F907F906F905F904F903F90B5
:1043D0000895EF92FF920F931F93CF93DF93CDB782
:1043E000DEB76F970FB6F894DEBF0FBECDBF8C015E
:1043F000FC01E850FE4F118210827C0185E3E80E3B
:10440000F11C40E050E0BA01C7010E94DE9E8BE142
:10441000F701DE01159601900D928A95E1F7F801FA
:1044200083A994A99C838B8388EF93E09A838983E3
:10443000AE014F5F5F4F67EB73E0C8014FDECE0107
:104440000196BEDD6F960FB6F894DEBF0FBECDBFEE
:10445000DF91CF911F910F91FF90EF9008952BE185
:10446000FB013496DC01149601900D922A95E1F738
:10447000FB0122813381FC01338322830895EF9273
:10448000FF920F931F93CF93DF93EC0118AA88AD8F
:10449000882321F0CE01C5960E94C29F7E0187E548
:1044A000E81A8EEFF80A45E360E0C7010E94179909
:1044B000811131C0E3E5F6E08491882341F09091C9
:1044C000C00095FFFCCF8093C6003196F5CFE6E49F
:1044D000F6E08491882341F09091C00095FFFCCFD5
:1044E0008093C6003196F5CF8091C00085FFFCCF48
:1044F0008AE08093C600FE01E655FE4F608170E0C1
:104500004AE050E08EE89CE00E94FE738091C0007B
:1045100085FFFCCF76C08E0102551E4F41E0B701EA
:10452000C8010E9431AA811126C040E0B701C8012C
:104530000E9431AA81111FC0E9E5F6E08491882329
:1045400041F09091C00095FFFCCF8093C60031965A
:10455000F5CFE3E3F6E08491882341F09091C00029
:1045600095FFFCCF8093C6003196F5CF8091C000B7
:1045700085FFFCCF46C0B801CE01C5960E94CD9CF8
:1045800081111FC0E9E5F6E08491882341F0909104
:10459000C00095FFFCCF8093C6003196F5CFE3E2D3
:1045A000F6E08491882341F09091C00095FFFCCF04
:1045B0008093C6003196F5CF8091C00085FFFCCF77
:1045C00020C081E088ABE3E5F6E08491882341F0E8
:1045D0009091C00095FFFCCF8093C6003196F5CF37
:1045E000E8E1F6E08491882341F09091C00095FFC6
:1045F000FCCF8093C6003196F5CF8091C00085FF37
:10460000FCCF8AE08093C6008E010F5C1F4FB8017B
:10461000CE018E5A9F4F23DFC05BDF4F1983088383
:10462000DF91CF911F910F91FF90EF900895FC01C2
:104630001282138210AA0895FC0180A9882319F020
:1046400081E0828313820895FC012281222311F0EC
:1046500021E0238308952F923F924F925F926F92B1
:104660007F928F929F92AF92BF92CF92DF92EF9202
:10467000FF920F931F93CF93DF93CDB7DEB7AD9724
:104680000FB6F894DEBF0FBECDBF7C016B014DA706
:10469000FC0180A9882309F4A5C14701F0E38F1A22
:1046A000FEEF9F0AC4010E94C29FF701128213828B
:1046B000CE0101965C017ADC170190E5290E311CD0
:1046C000C701C196F10191838083F60180818F3209
:1046D00009F081C06FE270E0C6010F940D668C0195
:1046E0000F5F1F4F0230110508F47BC06FE270E0CE
:1046F000C8010F940D662C01009709F473C00817C8
:10470000190708F06FC03C01601A710AA301B801D3
:10471000CE0180960F942D66E0E2F0E0EC0FFD1FD5
:10472000E60DF71D1082FE01B0968191882339F0C5
:104730009091C00095FFFCCF8093C600F6CF80918A
:10474000C00085FFFCCFFAE0F093C600F101608164
:1047500071816115710519F06C5F7F4F02C060E0D7
:1047600070E021E0AE01405E5F4FCE0105960E94F1
:10477000BBA181112BC0E4E0F6E08491882341F0D5
:104780009091C00095FFFCCF8093C6003196F5CF85
:10479000FE01B0968191882339F09091C00095FF79
:1047A000FCCF8093C600F6CFE2E0F6E08491882348
:1047B00041F09091C00095FFFCCF8093C6003196E8
:1047C000F5CF8091C00085FFFCCF07C1F101B18218
:1047D000A082820185CFC7018E5A9F4FF10191833C
:1047E00080838601FDA5FF2309F49CC0F10160814F
:1047F00071816115710519F06C5F7F4F02C060E037
:1048000070E021E0A801C4010E94BBA1882309F443
:104810005FC0F40181899289A389B489F701E551C8
:10482000FE4F80839183A283B383E4EFF5E084910C
:10483000D701A551BE4F882349F09091C00095FF44
:10484000FCCF8093C60031968491F5CFF801819119
:10485000882339F09091C00095FFFCCF8093C6006B
:10486000F6CFECEEF5E08491882341F09091C00002
:1048700095FFFCCF8093C6003196F5CF4D915D91A9
:104880006D917C912AE030E08EE89CE00E942A74D1
:104890008091C00085FFFCCF8AE08093C600F701BD
:1048A000ED50FE4F1082118212821382EEEDF5E080
:1048B0008491882341F09091C00095FFFCCF8093B4
:1048C000C6003196F5CF8091C00085FFFCCF85C032
:1048D000EAECF5E08491882341F09091C00095FFC7
:1048E000FCCF8093C6003196F5CFF80181918823E3
:1048F00039F09091C00095FFFCCF8093C600F6CFB1
:10490000E8ECF5E08491882341F09091C00095FF98
:10491000FCCF8093C6003196F5CF8091C00085FF13
:10492000FCCF5BC0F101608171816115710519F0E7
:104930006C5F7F4F02C060E070E026E5A801C40113
:104940000E94BBA181112AC0E4EBF5E08491882389
:1049500041F09091C00095FFFCCF8093C600319646
:10496000F5CFF8018191882339F09091C00095FF2F
:10497000FCCF8093C600F6CFE2EBF5E0849188236C
:1049800041F09091C00095FFFCCF8093C600319616
:10499000F5CF8091C00085FFFCCF1FC081E0F701FB
:1049A0008083E0EAF5E08491882341F09091C00093
:1049B00095FFFCCF8093C6003196F5CFF60181912B
:1049C000882339F09091C00095FFFCCF8093C600FA
:1049D000F6CF8091C00085FFFCCF8AE08093C600AF
:1049E000C501EEDAAD960FB6F894DEBF0FBECDBFAF
:1049F000DF91CF911F910F91FF90EF90DF90CF90BB
:104A0000BF90AF909F908F907F906F905F904F90EE
:104A10003F902F90089521E0FC01218340E01BCEC0
:104A20003F924F925F926F927F928F929F92AF923E
:104A3000BF92CF92DF92EF92FF920F931F93CF938B
:104A4000DF93CDB7DEB7AC970FB6F894DEBF0FBEDD
:104A5000CDBF7C015B01FC0180A9882309F401C161
:104A6000C70180539E4F0E94C29FF701128213829A
:104A7000CE0101966C019ADA270190E5490E511C8E
:104A8000C701C196F20191838083F50180818F3245
:104A900009F084C06FE270E0C5010F940D668C01CF
:104AA0000F5F1F4F9AE0392E0115110509F47CC0E4
:104AB0006FE270E0C8010F940D664C01009709F495
:104AC00074C00817190708F070C03C01601A710A19
:104AD000A301B801CE0180960F942D66E0E2F0E0CC
:104AE000EC0FFD1FE60DF71D1082FE01B0968191BF
:104AF000882339F09091C00095FFFCCF8093C600C9
:104B0000F6CF8091C00085FFFCCF3092C600F20145
:104B1000608171816115710519F06C5F7F4F02C072
:104B200060E070E021E0AE01405E5F4FCE0105968F
:104B30000E94BBA181112BC0ECE8F5E08491882391
:104B400041F09091C00095FFFCCF8093C600319654
:104B5000F5CFFE01B0968191882339F09091C00085
:104B600095FFFCCF8093C600F6CFEAE8F5E084918C
:104B7000882341F09091C00095FFFCCF8093C60040
:104B80003196F5CF8091C00085FFFCCF65C0F20162
:104B9000D182C08284010F5F1F4F86CFC7018E5A1A
:104BA0009F4FF201918380838501F2018081918181
:104BB000009711F0049602C080E090E0B8010E94D6
:104BC00091A2882301F1ECE7F5E08491882341F07C
:104BD0009091C00095FFFCCF8093C6003196F5CF31
:104BE000F8018191882339F09091C00095FFFCCFA6
:104BF0008093C600F6CFF701ED50FE4F1082118270
:104C0000128213822CC0E4E6F5E08491882341F0FF
:104C10009091C00095FFFCCF8093C6003196F5CFF0
:104C2000F8018191882339F09091C00095FFFCCF65
:104C30008093C600F6CFE2E6F5E08491882341F048
:104C40009091C00095FFFCCF8093C6003196F5CFC0
:104C50008091C00085FFFCCF8AE08093C600C6012A
:104C6000AFD9AC960FB6F894DEBF0FBECDBFDF91C3
:104C7000CF911F910F91FF90EF90DF90CF90BF9059
:104C8000AF909F908F907F906F905F904F903F90EC
:104C90000895CF93DF93EC0188A9882309F439C0E4
:104CA000E0E5F5E08491882341F09091C00095FF04
:104CB000FCCF8093C6003196F5CFFE01ED50FE4F3C
:104CC00040815181628173812AE030E08EE89CE06E
:104CD0000E942A74EEE4F5E08491882341F09091DB
:104CE000C00095FFFCCF8093C6003196F5CFFE0142
:104CF000E551FE4F40815181628173812AE030E0AD
:104D00008EE89CE00E942A748091C00085FFFCCF51
:104D100011C0EEE3F5E08491882341F09091C0004A
:104D200095FFFCCF8093C6003196F5CF8091C000EF
:104D300085FFFCCF8AE08093C600C655DE4F888190
:104D40008823E1F0E2E3F5E08491882341F090913B
:104D5000C00095FFFCCF8093C6003196F5CF6881E7
:104D600070E04AE050E08EE89CE00E94FE73809183
:104D7000C00085FFFCCF8AE08093C600DF91CF9111
:104D80000895AF92BF92CF92DF92EF92FF920F936E
:104D90001F93CF93DF935C01EB01FB010190002097
:104DA000E9F78F0101501109061B170B6C01F0E3A5
:104DB000CF1AFEEFDF0AF60110826EE470E0CE013A
:104DC0000F940D667C01009729F4F8013197EC0FE0
:104DD000FD1F0DC060E270E00F940D66EC0121969E
:104DE0006AE270E0C7010F940D66FC0131978DE017
:104DF00081838AE082831382BE01C50184539E4F62
:104E00000E9457A4F6018081882309F1E9E5F6E0C4
:104E10008491882341F09091C00095FFFCCF80934E
:104E2000C6003196F5CFECE1F5E08491882341F09E
:104E30009091C00095FFFCCF8093C6003196F5CFCE
:104E40008091C00085FFFCCF8AE08093C600DF918F
:104E5000CF911F910F91FF90EF90DF90CF90BF9077
:104E6000AF9008952F923F924F925F926F927F92F0
:104E70008F929F92AF92BF92CF92DF92EF92FF926A
:104E80000F931F93CF93DF93CDB7DEB7CC55D109E6
:104E90000FB6F894DEBF0FBECDBF8C0189509E4F78
:104EA0005C01662339F0F5011082F80180A98111B7
:104EB0001DC015C0FC018081882309F4B3C0F8012E
:104EC000E151FE4FC080D180E280F3800F949F5962
:104ED000C616D706E806F90608F4A4C0E4CFC80150
:104EE000CEDAF80180A9882309F49CC0F80187A5CF
:104EF0008F9386A58F9383E195E09F938F937E0197
:104F0000FFE3EF0EF11CFF92EF920F949E660F905D
:104F10000F900F900F900F900F90B12CF701019010
:104F20000020E9F73197EE19FF09BE1684F46701F6
:104F3000CB0CD11CB7FCDA94F6018081992787FD50
:104F400090950F946365F6018083B394E7CF480191
:104F5000F5E38F0E911C40E050E0BA01C4010E94BD
:104F6000DE9E512CCE0101966C012CE0622E25E0D4
:104F7000722E5E0191E2A90EB11C40E050E0B60134
:104F8000C4010E942B9E1816DCF5412CF6010190FD
:104F90000020E9F73197EC19FD094E1674F416015B
:104FA000240C311C47FC3A94F101808190E00F946D
:104FB0006365F10180834394E9CF8A858E37E9F2F6
:104FC00045E050E0B701C6010F941F66892BA9F692
:104FD000FF92EF927F926F92BF92AF920F949E6674
:104FE000C5010E94AA3C88E095E00E94543D0F90C4
:104FF0000F900F900F900F900F9055245394BDCFAA
:10500000511004C08FEF9FEFF80106C010921A02F2
:10501000F80186A597A5019697A786A7F801E655FA
:10502000FE4F1082C45ADF4F0FB6F894DEBF0FBE9A
:10503000CDBFDF91CF911F910F91FF90EF90DF9047
:10504000CF90BF90AF909F908F907F906F905F9028
:105050004F903F902F9008950F931F93CF93DF931E
:10506000EC018C0100531E4FC8010E94789FC801BB
:105070000E94C29F18821982DF91CF911F910F91D8
:105080000895EF92FF920F931F93CF93DF93CDB7C5
:10509000DEB76F970FB6F894DEBF0FBECDBF8C01A1
:1050A0007C0180E5E80EF11CC8018E5A9F4FF70184
:1050B00091838083E855FE4F22E030E031832083E6
:1050C000329670E07183608340E050E0BA0104964C
:1050D0000E94DE9EF701808191812BE1FC013496D4
:1050E000DE01159601900D922A95E1F7FC0182816F
:1050F00093819C838B8388EF93E09A838983AE01AD
:105100004F5F5F4F67EB73E0C8010E946E20CE01D6
:1051100001960E94E01F6F960FB6F894DEBF0FBE97
:10512000CDBFDF91CF911F910F91FF90EF90089528
:10513000CF92DF92EF92FF920F931F93CF93DF9363
:10514000CDB7DEB76F970FB6F894DEBF0FBECDBFF9
:105150008C016C0120E5C20ED11C8E5A9F4FF601C6
:1051600091838083E855FE4F21E030E03183208336
:105170007801F6E0EF1AFEEFFF0AF70111821082C4
:1051800040E050E0BA0104960E94DE9EF601808164
:1051900091812BE1FC013496DE01159601900D9270
:1051A0002A95E1F7FC01828193819C838B8388EFB0
:1051B00093E09A838983AE014F5F5F4F67EB73E0A3
:1051C000C8010E946E20CE0101960E94E01FF701E7
:1051D000808191816F960FB6F894DEBF0FBECDBF70
:1051E000DF91CF911F910F91FF90EF90DF90CF90C3
:1051F00008954F925F926F927F928F929F92AF929B
:10520000BF92CF92DF92EF92FF920F931F93CF93B3
:10521000DF93CDB7DEB76F970FB6F894DEBF0FBE42
:10522000CDBF8C017B01CE0101960E94D61FF801F3
:10523000E75AFF4F80816801811104C081E3C80EE5
:10524000D11C03C092E5C90ED11C21E0A701B60113
:105250006C5F7F4FCE0105960E94BBA181112DC0CE
:10526000E3E5F6E08491882341F09091C00095FF3A
:10527000FCCF8093C6003196F5CFE2EFF4E0849145
:10528000882341F09091C00095FFFCCF8093C60029
:105290003196F5CFF7018191882339F09091C000C4
:1052A00095FFFCCF8093C600F6CF8091C00085FFAC
:1052B000FCCF8AE08093C60038C0F801E955FE4F64
:1052C00080818A3058F58F5F8083A82EB12C3801F9
:1052D0009FE1899F600C711C1124E12CF12C412C61
:1052E000512C430182E5880E911C91E7690E711CD7
:1052F000A414B50471F0B4016E0D7F1DC3018E0DB1
:105300009F1DADD88FEF481A580A9FE1E91AF1089E
:10531000EFCFB601C8018F589F4FA1D8BE016F5F74
:105320007F4FC8018E5A9F4F9AD8CE0101960E9496
:10533000E01F6F960FB6F894DEBF0FBECDBFDF91B2
:10534000CF911F910F91FF90EF90DF90CF90BF9082
:10535000AF909F908F907F906F905F904F90089547
:10536000EF92FF920F931F93CF93DF93EC018C0189
:1053700009551E4FF8018081882349F181508083AF
:10538000BE016F587F4FCE018E5A9F4F68D8F12CC7
:105390003FE1E32EF8018081F816C8F42F2D30E0AC
:1053A000C9010196E89EB001E99E700D11246F5865
:1053B0007F4F6C0F7D1FE29EC001E39E900D112474
:1053C0008F589F4F8C0F9D1F4AD8F394E3CFDF91E6
:1053D000CF911F910F91FF90EF900895CF93DF939E
:1053E000EC010E94CEB20E943EB3CE0180539E4F8C
:1053F0000E94C29F1A821B8286EE94E0DF91CF91B9
:105400000C94543DEF92FF920F931F93CF93DF9331
:10541000EC017B018A01F70161917F01888199810B
:105420000F94E5688881998101969983888301505A
:10543000110989F7DF91CF911F910F91FF90EF90A4
:105440000895EF92FF920F931F93CF93DF938C01F8
:10545000EB017A01E60EF71EF801808191810F942D
:10546000CA688993F8018081918101969183808334
:10547000CE15DF0589F7DF91CF911F910F91FF9036
:10548000EF9008950F931F93CF93DF93CDB7DEB7BF
:1054900066970FB6F894DEBF0FBECDBF80E390E3F2
:1054A000A0E3B0E08D839E83AF83B88704E610E06D
:1054B0001E8B0D8B44E050E0BE016B5F7F4FCE0131
:1054C0004596A0DF40E150E069E572E1CE014596E6
:1054D00099DF40E150E069E672E1CE01459692DF46
:1054E00040E150E065E472E1CE0145968BDF44E097
:1054F00050E06DE372E1CE01459684DF44E050E078
:1055000069E372E1CE0145967DDF44E050E061E45D
:1055100072E1CE01459676DF44E050E069E272E147
:10552000CE0145966FDF44E050E069E772E1CE01BD
:10553000459668DF44E050E065E372E1CE014596B0
:1055400061DF44E050E061E372E1CE0145965ADF4D
:1055500044E050E06DE272E1CE01459653DF4CE04D
:1055600050E06EE67AE0CE0145964CDF8CED90E09F
:105570009C8B8B8B86E490E09A8B898B188A1F8694
:1055800080EF90E09E878D871C870B871A8619868F
:1055900042E050E0BE016D5E7F4FCE01459632DFA6
:1055A00042E050E0BE016F5E7F4FCE0145962ADF9C
:1055B00042E050E0BE01615F7F4FCE01459622DFA1
:1055C00042E050E0BE01635F7F4FCE0145961ADF97
:1055D00042E050E0BE01655F7F4FCE01459612DF8D
:1055E00042E050E0BE01675F7F4FCE0145960ADF83
:1055F00044E050E06DE772E0CE01459603DF44E001
:1056000050E069E772E0CE014596FCDE44E050E0F0
:1056100065E772E0CE014596F5DE41E050E062E8D4
:1056200072E0CE014596EEDE41E050E068E375E1C0
:10563000CE014596E7DE44E050E064E275E0CE013D
:105640004596E0DE44E050E060E275E0CE0145962C
:10565000D9DE44E050E066E172E0CE014596D2DE4C
:1056600044E050E06DE977E0CE014596CBDE44E0C2
:1056700050E06CE175E0CE014596C4DE44E050E0B8
:1056800068E175E0CE014596BDDE44E050E062E1A0
:1056900072E0CE014596B6DE48E150E068EF74E076
:1056A000CE014596AFDE44E050E06FE272E0CE01FD
:1056B0004596A8DE44E050E06BE272E0CE014596EC
:1056C000A1DE44E050E063E272E0CE0145969ADE4E
:1056D00086E591E3A5E3B0E089839A83AB83BC833D
:1056E0001E8B0D8B44E050E0BE016F5F7F4FCE01FB
:1056F000459688DEE5EBF8E08491882341F09091AF
:10570000C00095FFFCCF8093C6003196F5CFE5EA47
:10571000F8E08491882341F09091C00095FFFCCF80
:105720008093C6003196F5CF8091C00085FFFCCFF5
:105730008AE08093C60066960FB6F894DEBF0FBE6F
:10574000CDBFDF91CF911F910F910895CF93DF933C
:10575000C5EBD8E0FE018491882341F09091C00010
:1057600095FFFCCF8093C6003196F5CFE5E9F8E0D0
:105770008491882341F09091C00095FFFCCF8093E5
:10578000C6003196F5CF8091C00085FFFCCF8AE03E
:105790008093C600FE018491E5EBF8E0882349F090
:1057A0009091C00095FFFCCF8093C6003196849104
:1057B000F5CF4091591250915A1260915B1270913D
:1057C0005C128DE898E00E94693C40915D12509116
:1057D0005E1260915F12709160128AE898E00E94F8
:1057E000693C409161125091621260916312709114
:1057F000641287E898E00E94693C409165125091DC
:105800006612609167127091681284E898E00E94B5
:10581000693C8091C00085FFFCCF8AE08093C60080
:10582000FE018491E5EBF8E0882349F09091C000F7
:1058300095FFFCCF8093C60031968491F5CFEAE6C0
:10584000F8E08491882341F09091C00095FFFCCF4F
:105850008093C6003196F5CF8091C00085FFFCCFC4
:105860008AE08093C600FE018491E5EBF8E088238E
:1058700049F09091C00095FFFCCF8093C60031960F
:105880008491F5CF4091691250916A1260916B1228
:1058900070916C1281E698E00E94693C40916D1213
:1058A00050916E1260916F12709170128EE598E0B7
:1058B0000E94693C40917112509172126091731272
:1058C000709174128BE598E00E94693C40917512CA
:1058D00050917612609177127091781288E598E075
:1058E0000E94693C8091C00085FFFCCF8AE08093D4
:1058F000C600FE018491E5EBF8E0882349F0909121
:10590000C00095FFFCCF8093C60031968491F5CFFF
:10591000EAE3F8E08491882341F09091C00095FF7C
:10592000FCCF8093C6003196F5CF8091C00085FFF3
:10593000FCCF8AE08093C600FE018491E5EBF8E09D
:10594000882349F09091C00095FFFCCF8093C6005A
:1059500031968491F5CF4091451250914612609155
:1059600047127091481281E398E00E947B3C40917D
:10597000491250914A1260914B1270914C128EE272
:1059800098E00E947B3C40914D1250914E126091E4
:105990004F12709150128BE298E00E947B3C409134
:1059A000511250915212609153127091541288E228
:1059B00098E00E947B3C8091C00085FFFCCF8AE08C
:1059C0008093C600FE018491E5EBF8E0882349F05E
:1059D0009091C00095FFFCCF8093C60031968491D2
:1059E000F5CFE3EFF7E08491882341F09091C00078
:1059F00095FFFCCF8093C6003196F5CF8091C00013
:105A000085FFFCCF8AE08093C600FE018491E5EB20
:105A1000F8E0882349F09091C00095FFFCCF809377
:105A2000C60031968491F5CF40913D1250913E12BF
:105A300060913F12709140128AEE97E00E94693C9B
:105A40004091391250913A1260913B1270913C1280
:105A500087EE97E00E94693C8091C00085FFFCCFF3
:105A60008AE08093C600FE018491E5EBF8E088238C
:105A700049F09091C00095FFFCCF8093C60031960D
:105A80008491F5CFE4E3F7E08491882341F090918D
:105A9000C00095FFFCCF8093C6003196F5CF809172
:105AA000C00085FFFCCF8AE08093C600FE01849190
:105AB000E5EBF8E0882349F09091C00095FFFCCF1A
:105AC0008093C60031968491F5CF40914112509158
:105AD000421260914312709144128BE297E00E944F
