:100000000C9486200C94B7200C94B7200C94B72045
:100010000C94B7200C94B7200C94B7200C94B72004
:100020000C94B7200C94B7200C94B7200C94B720F4
:100030000C94B7200C94B7200C94B7200C94B720E4
:100040000C94B7200C94FAAD0C94B7200C94B72004
:100050000C94B7200C94B7200C94C4C20D94AC5EE1
:100060000C94B7200C94A2740C94B7200C94B72075
:100070000C94B7200C94B7200C94B7200C947041CA
:100080000C94B7200C94B7200C94B7200C94B72094
:100090000C94B7200C94B7200C94B7200C94CBF997
:1000A0000C94B7200C94B7200C94B7200C94B72074
:1000B0000C94B7200C94B7200C94B7200C94B72064
:1000C0000C94B7200C94B7200C94B7200C94B72054
:1000D0000C94B7200C94B7200C94B7200C94B72044
:1000E0000C94B720BB32BE32C232C632CA32CE32D4
:1000F0003233D232D632DB323233E032E632EA32D7
:10010000EF32F332F7323233FB32FF320533323320
:100110000B33113313331533173319331B331D339B
:100120001F33213323332533273329332B332D3307
:100130002F33E1BC0EBD5ABD86BD26BD26BD26BDF2
:1001400026BD26BD26BDD7BD24BE46BE2EC33FC399
:100150005BC368C382C38FC3A9C3B6C3D6C3D3C6A8
:10016000D3C6D6C6D9C6DFC6E2C6E5C6E8C6F3C65C
:10017000DCC6F3C6F3C6F3C6F3C6F3C6F3C6F3C6CE
:10018000F3C6F3C6EBC653012F023F027F012D02D7
:100190006B016B022B01A1015D01F90161026F018D
:1001A00029015F02AD015F011702C70183017301DD
:1001B000FF01270293015B016901F5013101830110
:1001C000430135014302C5012B02730265017B0126
:1001D0005D023102B301A30167013B024702F10155
:1001E0009F015D02A70153025901084AD73B3BCE4C
:1001F000016E84BCBFFDC12F3D6C74319ABD568326
:100200003DDA3D00C77F11BED9E4BB4C3E916BAADD
:10021000AABE000000803F05A84CCDB2D44EB9382C
:1002200036A9020C50B9918688083CA6AAAA2ABE13
:10023000000000803F000D94255E0D94931D0D94E9
:10024000491D0D94DE170D94AA4B0D94183B0D9487
:10025000D84A0D94145A0D94F1580D94443A0D94C3
:10026000AE2A0D9400600D94BF4B0D9414600D9454
:10027000D42E0D94035E0D9407280D94D72F0D9462
:100280002E2A0D947F1B0D940A600D948E4E0D94B2
:10029000392F0D9442400D94A7260D94D1220D9430
:1002A000E43C0D9400530D94BA440D94C8480D9449
:1002B000DB2D0D947E600D94DD5F0D9431590D940E
:1002C0009B5F0D94A73F0D946B410D943F600D947F
:1002D0005E600D94E75F0D94EB440D944C500D94CB
:1002E000F6590D94501D0D94B95F0D9443510D9422
:1002F00009180D94A2430D9445600D94E03E0D94B1
:10030000CF440D94F7170D9428600D94094C0D946B
:10031000A2290D94BF3F0D94905E0D94F63F0D946D
:10032000822E0D94CE5C0D94D35F0D94DD2D0D9433
:1003300092430D9496350D94F4330D947C3A0D94BC
:1003400070600D940D590D945A600D94611D0D94BB
:1003500076600D9431230D940C1E0D94965F0D94D0
:10036000CF190D9407300D9454600D9483440D946F
:100370008E400D947E1E0D94CC480D949F2E0D94AE
:1003800099330D94FD440D948C2F0D9449600D9478
:10039000AF5F0D94F1300D94B72E0D94042F0D9492
:1003A000E1380D94C41D0D94B11A0D9446430D947B
:1003B000041D0D948B2B0D94B1230D945F560D9459
:1003C000265E0D943E1C0D94074A0D94FD170D9466
:1003D00057370D94F2170D94F12E0D940C290D94AE
:1003E000033F0D946C600D9404180D94F65F0D940A
:1003F000E9270D9476590D94A0330D9400610D9466
:10040000C15F0D94E9480D9421490D94C6340D94B3
:10041000D9310D94F8390D943B280D9416190D948B
:10042000D7330D941A1B0D941A280D94272E0D9472
:10043000A55F0D94A33F0D94212F0D94183A0D94B0
:10044000801C0D9466300D9445560D9428280D940B
:10045000C95F0D946D260D944C600D94D2440D949B
:10046000BD440D9450600D94525E0D940E4E0D944B
:1004700026340D94F8370D9462600D94A9230D94E1
:10048000C0440D946C390D941E600D945E5A0D9409
:1004900068600D9463380D94E6390D94EF2F0D9438
:1004A0003B580D943C480D947A600D94605D0D941A
:1004B0005B5A0D9461170D945C1D0D9483600D942F
:1004C000915F0D9494590D94C5470D9488360D9401
:1004D000355D0D94FB5D0D94EE440D94165E0D9408
:1004E00089180D94A5170D943B604D383420582081
:1004F00059205A20450043616E6E6F7420656E74FA
:100500006572207375626469723A20004D3234005E
:100510004D3233202573006175746F25692E670095
:100520006572726F722077726974696E6720746F7A
:100530002066696C650043617264206572726F7237
:100540003A004E6F74205344207072696E74696E65
:1005500067002F005344207072696E74696E6720C3
:100560006279746520002E0044656C6574696F6E55
:10057000206661696C65642C2046696C653A2000D0
:1005800046696C652064656C657465643A002E008C
:100590006F70656E206661696C65642C2046696CBD
:1005A000653A200057726974696E6720746F20661F
:1005B000696C653A20002E006F70656E2066616977
:1005C0006C65642C2046696C653A20002E006F70C3
:1005D000656E206661696C65642C2046696C653ABD
:1005E000200046696C652073656C65637465640002
:1005F0002053697A653A200046696C65206F706502
:100600006E65643A20002E006F70656E2066616929
:100610006C65642C2046696C653A20005344206365
:10062000617264206F6B006F70656E526F6F742023
:100630006661696C656400766F6C756D652E696EB8
:100640006974206661696C656400534420696E6951
:1006500074206661696C006563686F3A0045727268
:100660006F723A0048617264636F64656420446528
:100670006661756C742053657474696E6773204C81
:100680006F616465640048617264636F64656420CF
:1006900044656661756C742053657474696E677324
:1006A0002073746F7265640053697A65206F6620E9
:1006B0007468652073657474696E6720696E20655F
:1006C0006570726F6D3A0053746F72656420736564
:1006D0007474696E67732072657472696576656497
:1006E000002044002049002020204D33303120508C
:1006F000005049442073657474696E67733A002032
:100700005A0020590020204D323036205800486FC2
:100710006D65206F666673657420286D6D293A00DB
:10072000204500205A00205800204200205400207C
:10073000204D323035205300416476616E6365642C
:10074000207661726961626C65733A20533D4D6930
:100750006E20666565647261746520286D6D2F7307
:10076000292C20543D4D696E2074726176656C2091
:10077000666565647261746520286D6D2F73292C20
:1007800020423D6D696E696D756D207365676D659D
:100790006E742074696D6520286D73292C20583D76
:1007A0006D6178696D756D205859206A65726B208E
:1007B000286D6D2F73292C20205A3D6D6178696D4D
:1007C000756D205A206A65726B20286D6D2F732914
:1007D0002C2020453D6D6178696D756D2045206A3E
:1007E00065726B20286D6D2F732900205400202026
:1007F0004D323034205300416363656C657261741F
:10080000696F6E3A20533D616363656C6572617414
:10081000696F6E2C20543D7265747261637420613F
:100820006363656C65726174696F6E0020450020BA
:100830005A0020590020204D3230312058004D619F
:1008400078696D756D20416363656C65726174696B
:100850006F6E20286D6D2F7332293A0020450020DD
:100860005A0020590020204D3230332058004D616D
:1008700078696D756D206665656472617465732055
:10088000286D6D2F73293A00204500205A00205909
:100890000020204D39322058005374657073207049
:1008A000657220756E69743A0053657474696E6779
:1008B000732053746F726564006563686F3A005407
:1008C0004553540D0A000D0A00556E6B6E6F776E1E
:1008D00020636F6D6D616E643A20000D0A003F0069
:1008E00056657273696F6E20322E312E3550202D71
:1008F0006265746120320073696E67756C61722085
:100900006D6174726978005072696E7465722073DB
:10091000746F707065642064756520746F206572F3
:10092000726F72732E204669782074686520657234
:10093000726F7220616E6420757365204D3939398C
:1009400020746F20726573746172742E2028546550
:100950006D7065726174757265206973207265735C
:1009600065742E2053657420697420616674657205
:100970002072657374617274696E672900507269C0
:100980006E7465722068616C7465642E206B696C8E
:100990006C28292063616C6C656421006F6B0052C8
:1009A0006573656E643A2000456E6473746F7020E1
:1009B0007374696C6C207072657373656420616612
:1009C000746572206261636B696E67206F66662E64
:1009D00020456E6473746F7020737475636B3F0091
:1009E000456E6473746F70206E6F742070726573DF
:1009F00073656420616674657220686F6D696E67E7
:100A000020646F776E2E20456E6473746F70206261
:100A1000726F6B656E3F002200556E6B6E6F776E66
:100A200020636F6D6D616E643A202200456C6563D2
:100A300074726F6E6963735F746573740020423AF9
:100A4000300020423A31006F6B20523A0044657604
:100A50006963652049442053746F7265643A0022CB
:100A600000556E6B6E6F776E20636F6D6D616E6497
:100A70003A2022007A5F6D61783A2000795F6D61DB
:100A8000783A2000785F6D61783A20005A3A005930
:100A90003A0020436F756E7420583A20005A3A008D
:100AA000593A0020436F756E7420583A2000453A39
:100AB000005A3A00593A00583A004649524D5741B7
:100AC00052455F4E414D453A4D61726C696E2055FD
:100AD0006C74696D616B6572323B20537072696E24
:100AE0007465722F6772626C206D61736875702017
:100AF000666F722067656E36204649524D574152E7
:100B0000455F55524C3A687474703A2F2F77777757
:100B10002E6D656E64656C2D70617274732E636FDB
:100B20006D2050524F544F434F4C5F5645525349DE
:100B30004F4E3A312E30204D414348494E455F5487
:100B40005950453A4F7665724C6F7264204558543F
:100B500052554445525F434F554E543A310A002096
:100B6000423A0020453A00543A0020573A002045C6
:100B70003A00543A002042403A0020403A00202FE8
:100B80000020423A00202F006F6B20543A00256964
:100B9000206D696E2C2025692073656300456E64A5
:100BA0002066696C65206C69737400426567696EC4
:100BB0002066696C65206C69737400666974746979
:100BC0006E674265645570646174654B4166746517
:100BD000723A0066697474696E6742656455706440
:100BE0006174654B4265666F72653A006164645F6B
:100BF000686F6D65696E675B5A5F415849535D0068
:100C000066697474696E67426564006164645F68F4
:100C10006F6D65696E675B5A5F415849535D006649
:100C2000697474696E6742656441727261790047E4
:100C300032380A4D383400256920686F7572732088
:100C40002569206D696E7574657300446F6E65204B
:100C50007072696E74696E672066696C6500736492
:100C6000206572726F72004D323230205325690058
:100C70004D31303620532569003B4C415945523A9D
:100C8000004D3235207265636569766564004D32CA
:100C900035007364206572726F72005072696E74F1
:100CA00065722073746F707065642064756520745C
:100CB0006F206572726F72732E2046697820746897
:100CC00065206572726F7220616E64207573652095
:100CD0004D39393920746F20726573746172742EC6
:100CE000202854656D706572617475726520697332
:100CF0002072657365742E205365742069742061B9
:100D0000667465722072657374617274696E6729A6
:100D1000006F6B004E6F204C696E65204E756D62E2
:100D20006572207769746820636865636B73756D9D
:100D30002C204C617374204C696E653A20004E6F14
:100D400020436865636B73756D2077697468206CE8
:100D5000696E65206E756D6265722C204C617374CE
:100D6000204C696E653A2000636865636B73756D2E
:100D7000206D69736D617463682C204C61737420FD
:100D80004C696E653A20004C696E65204E756D6247
:100D90006572206973206E6F74204C617374204CEF
:100DA000696E65204E756D6265722B312C204C6129
:100DB0007374204C696E653A20004D313130004427
:100DC0006F6E6520736176696E672066696C652E4B
:100DD000006F6B004D323900706C61696E46616363
:100DE000746F723A00706C61696E466163746F7201
:100DF0003A002020506C616E6E65724275666665C1
:100E00007242797465733A20002046726565204D00
:100E1000656D6F72793A2000417567203134203258
:100E200030313500436F6D70696C65643A2000564F
:100E3000657273696F6E20322E312E3550202D620F
:100E4000657461203200207C20417574686F723AAD
:100E50002000417567203134203230313520313562
:100E60003A35363A303800204C617374205570643E
:100E7000617465643A2000312E302E30004D61726D
:100E80006C696E200020536F667477617265205222
:100E90006573657400205761746368646F672052DE
:100EA00065736574002042726F776E206F757420D1
:100EB0005265736574002045787465726E616C20AC
:100EC000526573657400506F776572557000737466
:100ED00061727400656E717565696E672066756C08
:100EE0006C002200656E717565696E672022006571
:100EF0006E717565696E672066756C6C00220065A1
:100F00006E717565696E672022004F7574206F667B
:100F1000206D656D6F7279000101010000E04000F5
:100F200000E0400000E04000002A4300002A4300A7
:100F300000824300000000000000000080894300A0
:100F400000AA420000AA42000082430000AAC20098
:100F500000AAC2000000006563686F3A0045727223
:100F60006F723A0020746F6F206C6F6E6720657827
:100F700074727573696F6E2070726576656E7465D4
:100F8000640020636F6C6420657874727573696F98
:100F90006E2070726576656E7465640020746F6F84
:100FA000206C6F6E6720657874727573696F6E2040
:100FB00070726576656E7465640020636F6C642082
:100FC000657874727573696F6E2070726576656E80
:100FD000746564006563686F3A0000002110422068
:100FE00063308440A550C660E770088129914AA10A
:100FF0006BB18CC1ADD1CEE1EFF131121002733281
:101000005222B5529442F772D662399318837BB359
:101010005AA3BDD39CC3FFF3DEE362244334200410
:101020000114E664C774A44485546AA54BB52885A9
:101030000995EEE5CFF5ACC58DD553367226111660
:101040003006D776F6669556B4465BB77AA71997F9
:101050003887DFF7FEE79DD7BCC7C448E5588668E8
:10106000A7784008611802282338CCC9EDD98EE949
:10107000AFF9488969990AA92BB9F55AD44AB77AC0
:10108000966A711A500A333A122AFDDBDCCBBFFB99
:101090009EEB799B588B3BBB1AABA66C877CE44CD0
:1010A000C55C222C033C600C411CAEED8FFDECCDE9
:1010B000CDDD2AAD0BBD688D499D977EB66ED55EA0
:1010C000F44E133E322E511E700E9FFFBEEFDDDF39
:1010D000FCCF1BBF3AAF599F788F8891A981CAB1C5
:1010E000EBA10CD12DC14EF16FE18010A100C230F7
:1010F000E3200450254046706760B9839893FBA3B2
:10110000DAB33DC31CD37FE35EF3B1029012F32246
:10111000D2323542145277625672EAB5CBA5A89501
:1011200089856EF54FE52CD50DC5E234C324A01496
:1011300081046674476424540544DBA7FAB7998791
:10114000B8975FE77EF71DC73CD7D326F2369106E6
:10115000B01657667676154634564CD96DC90EF9D9
:101160002FE9C899E9898AB9ABA944586548067836
:101170002768C018E1088238A3287DCB5CDB3FEBF1
:101180001EFBF98BD89BBBAB9ABB754A545A376A86
:10119000167AF10AD01AB32A923A2EFD0FED6CDDC1
:1011A0004DCDAABD8BADE89DC98D267C076C645CD6
:1011B000454CA23C832CE01CC10C1FEF3EFF5DCFD1
:1011C0007CDF9BAFBABFD98FF89F176E367E554E26
:1011D000745E932EB23ED10EF01E7C3C3E5E2B3DE3
:1011E0003F2F5B5D3B2C2A225C00534455505352E9
:1011F00065747269657665436C6173733A00534434
:101200005550535363616E506F736974696F6E3AD2
:101210000053445550535363616E496E64657800C2
:101220007468652046696C65506F736974696F6E88
:101230003A005344555053506F736974696F6E4947
:101240006E6465783A00205A3A0020593A002058D6
:101250003A00656E6473746F7073206869743A2025
:101260000024F4D43050C38E20C2A24017828B7069
:1012700011127A910D816CD90AA861E108C75866EC
:1012800007615143061E4B5D05C145A7041A411174
:1012900004093D9803713931034036DB026533910F
:1012A00002D4305402802E1D02632CEE01752AC533
:1012B00001B028A001102781018F2564012B244B48
:1012C00001E0223401AC211F018D200D01801FFCA3
:1012D00000841EED00971DDF00B81CD200E61BC67F
:1012E00000201BBC00641AB200B219A8000A19A0A1
:1012F000006A189900D117910040178B00B5168429
:101300000031167E00B31579003A157300C7146FCB
:101310000058146A00EE1366008813630025135EFC
:1013200000C7125B006C12570015125400C1115116
:101330000070114F0021114B00D61049008D10474D
:10134000004610440002104200C00F4000800F3ED3
:1013500000420F3C00060F3B00CB0E3800930E37C7
:10136000005C0E3500270E3400F30D3200C10D3144
:1013700000900D3000600D2E00320D2D00050D2C5B
:1013800000D90C2B00AE0C2900850C29005C0C2721
:1013900000350C27000E0C2600E80B2400C40B249B
:1013A00000A00B23007D0B23005A0B2100390B21D9
:1013B00000180B2000F80A1F00D90A1E00BB0A1EE5
:1013C000009D0A1D00800A1D00630A1C00470A1BBD
:1013D000002C0A1B00110A1A00F7091A00DD09196E
:1013E00000C4091900AB091900920917007B0918FC
:1013F00000630917004C091600360916002009166B
:10140000000A091500F5081500E0081400CC0814BE
:1014100000B8081400A4081400900813007D0812F6
:10142000006B081300580812004608120034081117
:1014300000230811001208110001081100F0071024
:1014400000E0071000D0071000C0071000B0070F21
:1014500000A107100091070E0083070F0074070F0B
:101460000065070E0057070E0049070E003B070DE9
:10147000002E070E0020070D0013070D0006070DB4
:1014800000F9060C00ED060D00E0060C00D4060C79
:1014900000C8060C00BC060C00B0060C00A4060B2D
:1014A0000099060C008D060B0082060B0077060BD8
:1014B000006C060B0061060A0057060B004C060A7A
:1014C0000042060A0038060A002E060A0024060A10
:1014D000001A060A001006090007060A00FD0509A1
:1014E00000F4050900EB050900E2050900D905092A
:1014F00000D0050900C7050900BE050900B50508AB
:1015000000AD050800A50509009C05080094050824
:10151000008C050800840508007C05080074050897
:10152000006C050700650508005D05070056050805
:10153000004E05070047050700400508003805076D
:1015400000310507002A050700230507001C0506D2
:1015500000160507000F050700080506000205072D
:1015600000FB040600F5040700EE040600E804068C
:1015700000E2040700DB040600D5040600CF0406E1
:1015800000C9040600C3040600BD040600B7040633
:1015900000B1040500AC040600A6040600A0040582
:1015A000009B04060095040500900406008A0405CB
:1015B0000085040500800406007A04050075040512
:1015C00000700405006B0405006604050061040555
:1015D000005C04050057040500520405004D040595
:1015E0000048040500430405003E0404003A0405D5
:1015F0000035040500300404002C04050027040411
:1016000000230405001E0404001A04040016040547
:1016100000110404000D040400090405000404047E
:101620000000040400FC030400F8030400F40304B5
:1016300000F0030400EC030400E8030400E40304E6
:1016400000E0030400DC030400D8030400D4030416
:1016500000D0030400CC030400C8030300C5030347
:101660000024F404D9201BC40C5C0E9804C4095F48
:101670000265077101F405F900FB04B30048048713
:1016800000C10369005803550003034500BE023A38
:10169000008402310053022A00290225000402209E
:1016A00000E4011C00C8011900AF011700980114E3
:1016B0000084011300710110006101100051010E3E
:1016C0000043010D0036010B002B010B0020010B24
:1016D00000150109000C01090003010800FB0008C6
:1016E00000F3000800EB000700E4000600DE00063F
:1016F00000D8000600D2000600CC000500C7000597
:1017000000C2000500BD000400B9000400B50004DB
:1017100000B1000400AD000400A9000400A500030E
:1017200000A20003009F0004009B00030098000338
:10173000009500020093000300900003008D00025A
:10174000008B000300880002008600020084000372
:1017500000810002007F0002007D0002007B000289
:101760000079000200770001007600020074000298
:101770000072000100710002006F0002006D0001A4
:10178000006C0002006A00010069000200670001AD
:1017900000660001006500010064000200620001B3
:1017A0000061000100600001005F0002005D0001B7
:1017B000005C0001005B0001005A000100590001BB
:1017C00000580001005700010056000100550001BB
:1017D00000540001005300000053000100520001BA
:1017E0000051000100500001004F0001004E0000B8
:1017F000004E0001004D0001004C0001004B0000B4
:10180000004B0001004A00010049000100480000AF
:1018100000480001004700010046000000460001AA
:1018200000450000004500010044000100430000A5
:10183000004300010042000000420001004100009E
:101840000041000100400001003F0000003F000196
:10185000003E0000003E0001003D0000003D000190
:10186000003C0000003C0000003C0001003B000088
:10187000003B0001003A0000003A0001003900007E
:101880000039000100380000003800000038000175
:10189000003700000037000100360000003600006D
:1018A0000036000100350000003500000035000161
:1018B0000034000000340000003400010033000058
:1018C000003300000033000100320000003200004D
:1018D0000032000100310000003100000031000141
:1018E000003000000030000000300001002F000038
:1018F000002F0000002F0000002F0001002E00002C
:10190000002E0000002E0001002D0000002D000020
:10191000002D0000002D0001002C0000002C000014
:10192000002C0000002C0001002B0000002B000008
:10193000002B0000002B0001002A0000002A0000FC
:10194000002A0000002A00010029000000290000F0
:1019500000290000002900000029000100280000E3
:1019600000280000002800000028000000280001D6
:1019700000270000002700000027000000270000CB
:1019800000270001002600000026000000260000BD
:1019900000260000002600010025000000250000B0
:1019A00000250000002500000025000000250001A2
:1019B0000024000000240000002400000024000097
:1019C0000024000100230000002300000023000089
:1019D000002300000023000000230000002300017A
:1019E000002200000022000000220000002200006F
:1019F0000022000000220001002100000021000060
:101A00000021000000210000002100000021000052
:101A10000021000100200000002000000020000044
:101A20000020000000200000002000000020000036
:101A300000200001001F0000001F0000001F000028
:101A4000001F0000001F0000001F0000001F000119
:101A5000001E0000001E0000001E0000001E00000E
:101A6000006563686F3A0054656D706572617475E6
:101A700072652068656174656420626564207377AF
:101A8000697463686564206F66662E204D41585402
:101A9000454D502074726967676572656420212125
:101AA000003A2045787472756465722073776974A2
:101AB00063686564206F66662E204D494E54454D1F
:101AC00050207472696767657265642021003A204E
:101AD000457874727564657220737769746368659C
:101AE00064206F66662E204D415854454D50207439
:101AF0007269676765726564202100457874727544
:101B0000646572207377697463686564206F6666C4
:101B10002E2054656D7065726174757265206469FC
:101B200066666572656E6365206265747765656E6D
:101B30002074656D702073656E736F7273206973A6
:101B400020746F6F20686967682021004D37373730
:101B5000205025690D0A004D373736205025690D74
:101B60000A004D373735205025690D0A004D3737AB
:101B700031205325690D0A004D3737302053256930
:101B80000D0A00202D20496E76616C69642065780D
:101B9000747275646572206E756D626572202100C5
:101BA000504944204175746F74756E652066696E86
:101BB0006973686564212050757420746865204BD2
:101BC000702C204B6920616E64204B6420636F6E23
:101BD0007374616E747320696E746F20436F6E66E8
:101BE000696775726174696F6E2E68005049442090
:101BF0004175746F74756E65206661696C656421EA
:101C00002074696D656F75740020403A006F6B2019
:101C1000543A006F6B20423A005049442041757499
:101C20006F74756E65206661696C6564212054650A
:101C30006D706572617475726520746F6F2068696C
:101C4000676800204B643A2000204B693A2000204E
:101C50004B703A200020436C617369632050494403
:101C600020002054753A2000204B753A2000206D4A
:101C700061783A2000206D696E3A200020643A2095
:101C80000020626961733A20004572726F723A00F7
:101C9000000000006700010054010700DD010F0093
:101CA00094021500C1031C00EC042400FC083E0053
:101CB00020116E00A31278001514820095158C0077
:101CC000E91696007518A000E519AA00661BB40075
:101CD000C11CBE00311EC800921FD2000321DC00CF
:101CE0004122E600C723F0003D48F40170012C01B9
:101CF00090012701B0012201C0011D01F00118016E
:101D00001002130130020E01600209019002040169
:101D1000C002FF000003FA004003F5008003F0005A
:101D2000D003EB002004E6007004E100E004DC00D6
:101D30004005D700C005D2004006CD00D006C8003F
:101D40008007C3003008BE00F008B900C009B40025
:101D5000B00AAF00B00BAA00D00CA500000EA00086
:101D6000500F9B00C01096005012910000148C0080
:101D7000C0158700B0178200B0197D00D01B780015
:101D8000001E730040206E0090226900F024640061
:101D900040275F0090295A00E02B5500102E50007C
:101DA00020304B0010324600E033410090353C00BB
:101DB0001037370070383200A0392D00B03A2800B3
:101DC000A03B2300603C1E00103D1900903D140014
:101DD000103E0F00703E0A00C03E0500003F0000AC
:101DE0006F7220737769746368206F666600436F53
:101DF0006E6E6563742074686520506F776572003D
:101E00003F3F3F00835072696E74005072696E7478
:101E10002066726F6D20534420636172642E004D02
:101E200061696E204D656E7500737570706F7274A8
:101E300040647265616D6D616B65722E6363004312
:101E40006F6E746163743A00526564756E64616E9E
:101E5000742054656D700058206F7220592073777C
:101E60006974636820737475636B0058206F722007
:101E700059207377697463682062726F6B656E00B6
:101E80005A2073776974636820737475636B005AA2
:101E9000207377697463682062726F6B656E00539C
:101EA0006166657479206369726375697400486559
:101EB00061746572206572726F720054656D702076
:101EC00073656E736F72204245440054656D7020D7
:101ED00073656E736F72004552524F52202D20531E
:101EE000544F50504544003232000000000000C002
:101EF000C040404040404040404040404040404062
:101F000040404040404040404040404040404040D1
:101F100040404040C0C00000000000000000000041
:101F200000FF000000000000C0C0C0C0C0C0C0C0B2
:101F3000C0C0C0C0C0C0C0C0C0C0C0C0E020E0C001
:101F4000C0000000000000FF0000000000000000D2
:101F5000000000FF0000000000000101010101017C
:101F600001010101018181810101010101010302DE
:101F7000030101000000000000FF0000000000005D
:101F80000000000000FF0000000000000707070736
:101F9000070707070707070F080F070707070707C0
:101FA0000707070707000000000000FF000000000F
:101FB00000000000000000FF0000000000001C1CEA
:101FC0001C3E223E1C1C1C1C1C1C1C1C1C1C1C1C07
:101FD0001C1C1C1C1C1C1C000000000000FF00003E
:101FE0000000000000000000001F1810101010106A
:101FF00010101010101010101010101010101010E1
:102000001010101010101010101010101010181FB9
:1020100000000000000000000000000000000000C0
:1020200000000000000000000000000000000000B0
:1020300000000000000000000000000000000000A0
:102040000000000000000032320000000000E060EC
:102050002020202020202020202020202020202080
:102060002020202020202020202020202020202070
:1020700020202060E00000000000000000000000C0
:10208000FF0000000000000000000002060E1E3EDF
:102090007EFEFEFCF8F0E0C08000000000000000C2
:1020A000000000000000FF00000000000000000031
:1020B0000000FF000000FEFCF8F0E0C0800000001F
:1020C0000000000001FFFFFFFFFFFF800000000095
:1020D0000000000000000000FF0000000000000001
:1020E00000000000FF000000000103070F1F3F3F3A
:1020F0003F3F3F3F3F3F7FFFFFFFFFFFFFFFFFFEF1
:10210000FCF8F0E0C08000000000FF0000000000CC
:10211000000000000000FF000000000000000000C0
:10212000000000000000000000000103070F1F3F37
:102130007FFFF7E3C1E3F77F3F000000FF000000EF
:1021400000000000000000000F0C08080808080844
:1021500008080808080808080808080808080808FF
:10216000080808080808080808080808080C0F00EC
:10217000000000000000000000000000000000005F
:10218000000000000000000000000000000000004F
:10219000000000000000000000000000000000003F
:1021A0000000000000000032320000000000C0C04B
:1021B000404040404040404040404040404040401F
:1021C000404040404040404040404040404040400F
:1021D000404040C0C00000000000000000000000BF
:1021E000FF00000000000000000000808080808070
:1021F000808080FC80808080808080800000000063
:10220000000000000000FF000000000000000000CF
:102210000000FF0000000000000000000003FFFFBE
:10222000FFFFFFFF01FF01FFFFFFFFFFFF030000B4
:102230000000000000000000FF000000000000009F
:1022400000000000FF00000000000000000000008F
:10225000000103070F1F387F381F0F07030100001D
:1022600000000000000000000000FF00000000006F
:10227000000000000000FF000000E0E0E0E0C0F02F
:10228000FCFCFEFEFFFFFFFFFFFFFFFFFFFFFFFE67
:10229000FEFCFCF0C0E0E0E0E0000000FF00000019
:1022A00000000000000000001F1810101111111193
:1022B000101010101010101010101010101010101E
:1022C00010101010101010111111111010181F0003
:1022D00000000000000000000000000000000000FE
:1022E00000000000000000000000000000000000EE
:1022F00000000000000000000000000000000000DE
:10230000000000000000008015000000000080C0F8
:10231000C0E0E0E0E0E0E0C0C0800000E0E0E0E03D
:10232000E0E00000E0E0E0E0E00000E0E0E0E0E02D
:10233000E0E0E0E0E0E0E00000E0E0E0E0E0E060DD
:1023400060E0E0E0C080000000E0E0E0E0E0E0E02D
:10235000000000000000000080C0C0E0E0E0E0E01D
:10236000E0C0C080000000E0E0E0E0E0E06060E0AD
:10237000E0E0C0800000E0E0E0E0E0E0E0E0E0E09D
:10238000C0C080000000000000000000001E7FFFB1
:10239000FFFFE1C0C0E1FFFFFF7F1E0000030F3F12
:1023A000FFFFFCF0FC3F0F03000000C0FFFFFFFF3A
:1023B000FFCCCCC0E1E1E10000C0FFFFFFFFFFCC9C
:1023C0001C7FFFFFF7E3C00000C0FFFFFFFFFFC05F
:1023D000C0C0F0F0F000001E7FFFFFFFE1C0C0E1D1
:1023E000FFFFFF7F1E0000C0FFFFFFFFFFCC1C7F31
:1023F000FFFFF7E3C000C0FFFFFFFFFFC0C0E1FF2A
:10240000FFFF7F3E00000000000000000000000011
:1024100000010101010101000000000000000000B6
:1024200000010101000000000000000101010101A4
:10243000010101010101010000010101010101018E
:102440000000010101010100000101010101010180
:102450000101010101000000000000010101010172
:102460000100000000000001010101010101000064
:10247000010101010100010101010101010101014D
:1024800001000000000000000043414E43454C00A5
:102490007761726E696E673A20696E736964652050
:1024A000746865207377696674004C636455706462
:1024B0006174654E6F726D616C004C63645570643D
:1024C00061746557616974696E67004C6364557027
:1024D000646174654572726F72496E496E7465729B
:1024E00072757074004C63645570646174654572F4
:1024F000726F72006E6F74206E6F726D616C20650A
:102500006E64006932632054696D654F75740064B0
:10251000656661756C74006969632064617461202B
:102520006572726F720054575F4D525F4152425F45
:102530004C4F535400696963206461746120657273
:10254000726F7200646174610069326354696D6511
:102550004F75740064656661756C74006969632009
:102560007374617274206572726F720054575F4D9C
:10257000525F4152425F4C4F53540069696320736C
:1025800074617274206572726F720054575F4255A5
:10259000535F4552524F52006969632073746172F0
:1025A00074206572726F720064656661756C740088
:1025B0006969632061646472657373206572726F08
:1025C000720054575F4D525F4152425F4C4F53541B
:1025D0000069696320616464726573732065727257
:1025E0006F720054575F4D525F534C415F4E4143F1
:1025F0004B0069696320616464726573732065725E
:10260000726F72006932632054575F4D525F4441CC
:1026100054415F4E41434B00693263206C63645602
:10262000657273696F6E0054575F4D525F534C4132
:102630005F41434B006932632054696D654F757487
:1026400000696E746F2054575F4D525F534C415F69
:1026500041434B0054575F4255535F4552524F52CE
:1026600000696963206164647265737320657272C6
:102670006F720054575F4D545F534C415F4E41435E
:102680004B006969632061646472657373206572CD
:10269000726F720054575F53544152540069326351
:1026A0002054696D654F75740069326320737461DD
:1026B00072742054575F5245505F53544152540036
:1026C0006932632054696D654F7574006932632007
:1026D00054696D654F757400000000000000005FD4
:1026E00000000007000700147F147F14242A7F2AAB
:1026F0001223130864623649552250000503000076
:10270000001C2241000041221C00082A1C2A080843
:10271000083E08080050300000080808080800605B
:1027200060000020100804023E5149453E00427FEF
:10273000400042615149462141454B311814127FF6
:102740001027454545393C4A49493001710905037F
:102750003649494936064949291E003636000000E7
:102760005636000000081422411414141414412297
:102770001408000201510906324979413E7E1111C7
:10278000117E7F494949363E414141227F414122E4
:102790001C7F494949417F090901013E41415132AC
:1027A0007F0808087F00417F41002040413F017FB2
:1027B000081422417F404040407F0204027F7F0492
:1027C00008107F3E4141413E7F090909063E4151C3
:1027D000215E7F09192946464949493101017F0196
:1027E000013F4040403F1F2040201F7F2018207F96
:1027F00063140814630304780403615149454300DA
:10280000007F4141020408102041417F0000040282
:1028100001020440404040400001020400205454A2
:1028200054787F4844443838444444203844444829
:102830007F3854545418087E090102081454543C3B
:102840007F0804047800447D40002040443D00009F
:102850007F10284400417F40007C041804787C08E5
:1028600004047838444444387C14141408081414BC
:10287000187C7C080404084854545420043F444005
:10288000203C4040207C1C2040201C3C4030403CF0
:1028900044281028440C5050503C4464544C44008C
:1028A0000836410000007F0000004136080008089B
:1028B0002A1C08081C2A0808081C3E1C08000609D7
:1028C000090610181C1810081838180863616C697C
:1028D00062726174696F6E2070726F636573732EBC
:1028E0000067656E746C7920746F20646F20746863
:1028F0006500746F75636820746865206275696C23
:1029000064706C61746500546865204E6F7A7A6CEF
:10291000652077696C6C00332F31300041424F5293
:1029200054004D38340066726F6D206E6F7A7A6C89
:10293000652E2E2E006D6174657269616C2065785C
:10294000697473005075736820627574746F6E20BB
:102950007768656E00382F31300052454144592068
:102960002020004C6F6164696E67206D6174657230
:1029700069616C2E2E2E00372F313000616E64207D
:102980007468656E207075736820627574746F6EFC
:102990002E006472697665642062792065787472AD
:1029A0007564657200657874727564657220756E01
:1029B00074696C20697420697300496E7365727460
:1029C000206D6174657269616C20696E746F003688
:1029D0002F3130005245414459202020006D617450
:1029E000657269616C206C6F6164696E67007072FA
:1029F000696E74686561642068656174696E6720DA
:102A0000666F7200506C6561736520776169742C24
:102A100000352F313000746F207072696E74206938
:102A2000742100616E642070726573732074686530
:102A300020627574746F6E006F6E20746865205329
:102A4000442D636172640053656C6563742061207A
:102A50007072696E742066696C650031302F313098
:102A6000004C45542753205052494E540052656142
:102A700064696E6720636172642E2E2E0031302FE0
:102A8000313000796F7572204F7665724C6F7264C9
:102A90002E2E2E00746861742063616D6520776945
:102AA000746800506C6561736520696E736572743B
:102AB0002053442D636172640031302F3130006D3A
:102AC000616B652061203344205072696E7421006F
:102AD00049276D2072656164792E206C65742773B7
:102AE00000392F313000434F4E54494E5545005365
:102AF0004B495000746F20636F6E74696E75652E5C
:102B00000070757368206D6964646C65206275740B
:102B1000746F6E00696E73657274206D6174657296
:102B200069616C2E004E657874207374657020693D
:102B30007320746F00342F313000434F4E54494E90
:102B4000554500534B4950006973206C65667420ED
:102B500061726F756E642069742E00636173652005
:102B600074686174206D6174657269616C00507283
:102B7000696E74686561642068656174696E672058
:102B8000696E00322F31300043414E43454C0047BF
:102B9000323900746F20636F6E74696E7565005012
:102BA00072657373206D6964646C652062757474FA
:102BB0006F6E0073746172747570206F66204F764B
:102BC00065724C6F7264210057656C636F6D652090
:102BD000746F2074686520666972737400312F31D8
:102BE0003000434F4E54494E5545004445464155EB
:102BF0004C5400830082004F00830082004F00830A
:102C00000082004F00200020002000444F4E45006D
:102C10004465766963652049443A00566572736974
:102C20006F6E20322E312E3550202D62657461205A
:102C30003200417567203134203230313520313552
:102C40003A35363A31350052657475726E003F3F41
:102C50003F004D6174657269616C207365747469BD
:102C60006E67730052657472616374696F6E20736E
:102C7000657474696E67730052657475726E003F97
:102C80003F3F004D6174657269616C2073657474B7
:102C9000696E67732E0052657472616374696F6E3A
:102CA0002073657474696E67732E00526574757253
:102CB0006E20746F20416476616E6365642E003F00
:102CC0003F3F005265636F7665722073706565647F
:102CD000005265747261637420737065656400529C
:102CE000657472616374206C656E67746800526508
:102CF0007475726E006D6D2F736563006D6D2F734B
:102D00006563006D6D006D6D2F73656300526563C3
:102D10006F766572207370656564006D6D2F7365E5
:102D2000630052657472616374207370656564003A
:102D30006D6D0052657472616374206C656E6774AA
:102D4000680052455452414354494F4E00536574F4
:102D500074696E67730081430081432F00436C697F
:102D6000636B20746F2072657475726E00427569B2
:102D70006C64706C6174652074656D702E3A003FF0
:102D80003F3F008343616C696272617465008252E7
:102D9000656C6F6164003F3F3F004C6576656C2059
:102DA00074686520506C6174666F726D2E004368A4
:102DB000616E676520746865204D61746572696134
:102DC0006C2E003F3F3F008041626F75740080535E
:102DD000657474696E677300804D6F76656D656E9E
:102DE00074008254656D7065726174757265003F20
:102DF0003F3F0041626F75742E0053657474696EB5
:102E000067732E004D6F76656D656E742E00436896
:102E1000616E6765207468652054656D70657261C8
:102E2000747572652E003F3F3F0046616E207370DF
:102E300065656400486561747570206275696C64CD
:102E4000706C61746500486561747570206E6F7A8E
:102E50007A6C650052657475726E003F3F3F0025C5
:102E60000081430081430081430081430052657427
:102E700075726E20746F20416476616E6365642E96
:102E80000081430081432F00436C69636B20746FA2
:102E90002072657475726E004E6F7A7A6C6520745C
:102EA000656D70657261747572653A0025004661E2
:102EB0006E2073706565640054656D706174757221
:102EC00065003F3F3F004D6F7665204D6174657230
:102ED00069616C00486F6D652048656164005265EA
:102EE0007475726E003F3F3F004D6F7665207468C9
:102EF00065204D6174657269616C2E00486F6D6567
:102F00002074686520486561642E0052657475728E
:102F10006E20746F20416476616E6365642E00815B
:102F2000430081432F00436C69636B20746F2072F0
:102F3000657475726E00507265737320446F776E9E
:102F400020746F20657874727564650050726573C3
:102F50007320555020746F20726574726163740021
:102F60004E6F7A7A6C652074656D706572617475E8
:102F700072653A004732380A4D3834004D6F766535
:102F80006D656E74003F3F3F0056657273696F6EEA
:102F9000004D616368696E65205374617465004615
:102FA0006163746F72792052657365740052657441
:102FB00075726E003F3F3F0056657273696F6E20F9
:102FC000322E312E3550202D626574612032004D35
:102FD000616368696E652053746174652E00466193
:102FE00063746F72792052657365742E0052657434
:102FF00075726E20746F20416476616E6365642E15
:1030000000746F2064656661756C743F005265736F
:1030100065742065766572797468696E67005945D4
:1030200053004E4F006D004D6174657269616C3ADA
:10303000003A005072696E742074696D653A003A06
:10304000004C6966652074696D653A00426174746C
:103050006572793A20202020204368617267656498
:1030600000426174746572793A20202020436861BF
:103070007267696E670052657475726E0041626FA7
:103080007574004D61696E74656E616E6365204D87
:10309000656E750063616C6962726174696F6E2040
:1030A00070726F636573732E0067656E746C792040
:1030B000746F20646F2074686500746F7563682096
:1030C000746865206275696C64706C617465005425
:1030D0006865204E6F7A7A6C652077696C6C004168
:1030E000424F5254006973206C6566742061726FA0
:1030F000756E642069742E00636173652074686165
:1031000074206D6174657269616C005072696E74CF
:10311000686561642068656174696E6720696E0026
:1031200043414E43454C004732390A4D383400473D
:103130003120583735205930205A302E332046332D
:10314000303030002045300A0047393220452D32DA
:10315000300A47312046002045300A0020452D32F4
:10316000300A47312046000A4731204600473932AD
:103170002045004731204636303030205A35300A5D
:10318000473120583020592D3635205A35300047E8
:103190003238006164645F686F6D65696E675B5AA1
:1031A0005F415849535D004732380A4D3834006159
:1031B00064645F686F6D65696E675B5A5F4158490B
:1031C000535D00776F726B732077656C6C2E0075A2
:1031D0006E74696C20746865207072696E74007416
:1031E0006F206D6F76652074686520686F74656EFA
:1031F0006400507265737320446F776E206F722085
:10320000555000444F4E4500706C61696E466163D5
:10321000746F72206E65773A00706C61696E4661FA
:1032200063746F72206F6C643A0066697474696EBF
:103230006742656441727261790043616C696272D0
:103240006174696F6E00507265706172696E67209B
:10325000666F720048656174696E672075702E2E06
:103260002E0041424F5254007461726765745F745E
:10327000656D70657261747572655F626564007416
:103280006865206275696C64706C6174653F004D9F
:10329000616E75616C6C79206C6576656C00576F3A
:1032A000756C6420796F75206C696B6520746F0094
:1032B000594553004E4F00746865206275696C640F
:1032C000706C6174653F004175746F6D6174696302
:1032D000616C6C79206C6576656C00576F756C64F9
:1032E00020796F75206C696B6520746F00594553A8
:1032F000004E4F004D61696E74656E616E636520AE
:103300004D656E750041425300504C41004C6F6159
:10331000642044656661756C7400437573746F6DE9
:10332000697A650052657475726E004D6F646966E6
:1033300079207468652073657474696E67730025FD
:10334000002046616E3A008143008143002500461B
:103350006C6F773A006D6D003F3F3F0053746F72A2
:10336000652061732070726573657400466C6F77B9
:1033700020250046616E004469616D6574657200C8
:10338000486561746564206275696C64706C617411
:10339000650054656D706572617475726500526583
:1033A0007475726E00250025006D6D0081430081EB
:1033B000430025004D6174657269616C20666C6F15
:1033C0007700250046616E207370656564006D6D41
:1033D000004D6174657269616C204469616D65744A
:1033E0006572008143004275696C64706C6174653C
:1033F0002054656D702E0081430054656D706572B8
:103400006174757265004D6174657269616C204408
:10341000657461696C730053656C656374656420E1
:103420006D6174657269616C3A004F4B004D617457
:10343000657269616C2053657474696E67730065A9
:10344000787472756465722E006D6174657269615D
:103450006C2066726F6D00506C65617365207265DB
:103460006D6F76650052454144592020200043414C
:103470004E43454C00526576657273696E67206DE8
:103480006174657269616C0025002046616E3A00C6
:103490008143008143002500466C6F773A006D6DD3
:1034A000004D4154455249414C0066726F6D206E8B
:1034B0006F7A7A6C652E2E2E006D6174657269616B
:1034C0006C20657869747300507573682062757438
:1034D000746F6E207768656E005245414459202014
:1034E000200043414E43454C00466F727761726441
:1034F000696E67206D6174657269616C00616E64EC
:10350000207468656E207075736820627574746FBE
:103510006E2E006472697665642062792065787425
:103520007275646572006578747275646572207571
:103530006E74696C20697420697300496E736572DA
:1035400074206D6174657269616C20696E746F00BE
:1035500052454144592020200043414E43454C00F0
:1035600062652072656D6F7665642E005468652013
:103570006D6174657269616C2077696C6C00486577
:103580006174696E672066696E69736865642E0090
:10359000434F4E54494E554500534B4950006D61C1
:1035A00074657269616C206368616E67696E67003B
:1035B0005072696E74686561642068656174696ED3
:1035C0006720666F7200506C656173652077616972
:1035D000742C00556C746947636F64650047436FD2
:1035E000646520466C61766F723E3E004375726181
:1035F0003E3E4D616368696E652073657474696EE3
:103600006700506C656173652055736520556C7457
:103610006947476F6364650043414E43454C00432F
:103620004F4E54494E554500556C746947636F645D
:10363000650047436F646520466C61766F723E3E5D
:1036400000437572613E3E4D616368696E6520732B
:10365000657474696E6700506C656173652055739D
:103660006520556C746947476F6364650043414E3C
:1036700043454C00434F4E54494E5545004261630B
:103680006B0052657475726E004E6F20696E666FC6
:1036900020617661696C61626C65006D006D004D42
:1036A0006174657269616C3A200054696D653A20F5
:1036B000003B4D4154455249414C3A003B54494D21
:1036C000453A00466F6C6465720053442043415292
:1036D00044003B464C41564F523A556C746947433F
:1036E0006F6465003B464C41564F523A556C7469C5
:1036F00047436F6465004E6F2066696C6573206692
:103700006F756E6421004F4B004F4B005265616432
:10371000696E6720636172642E2E2E00506C6561A5
:10372000736520696E736572742063617264004E04
:103730006F2053442D43415244210072656C6561F2
:10374000736520437573746F6D00666F756E6420CA
:10375000437573746F6D003B545950453A4355534C
:10376000544F4D003B545950453A00666F756E6496
:10377000206600666F756E64206500666F756E6406
:10378000207900666F756E6420780073642065721E
:10379000726F7200205A002059000A4731205800E9
:1037A0004731205A004732380A4731310A47312021
:1037B0004636303030205A323030004C61796572F4
:1037C0003A0052657472697665496E6465783A00AC
:1037D0003B4C415945523A0047323800436F6465CB
:1037E0003A0053442D63617264210072656164691B
:1037F0006E67004572726F72207768696C6500525F
:10380000455455524E20544F204D41494E004731AA
:10381000204633303030205A300A47312046343089
:1038200030205A3230004D3130370A4D323230209C
:103830005334300A4D37383020533235350A4D373E
:1038400038312053313030000A4731204600205AA9
:10385000002059000A4731204633303030205800CC
:103860004739322045002045300A0047393220458B
:103870002D32300A47312046002045300A002045CD
:103880002D32300A47312046000A47312046004792
:1038900039322045004731204636303030205A3505
:1038A000300A473120583020592D3635205A3530CE
:1038B000000A473120583020592D3635205A00470C
:1038C00031204636303030205A00526574726163C0
:1038D00074696F6E004D6174657269616C20666C0D
:1038E0006F770046616E207370656564004275698C
:1038F0006C64706C6174652074656D702E00546525
:103900006D706572617475726500537065656400F1
:1039100052657475726E0025002500814300814355
:1039200000814300814300250081430081432F0033
:10393000436C69636B20746F2072657475726E00DE
:103940004E6F7A7A6C652074656D706572617475FE
:1039500072653A003F3F3F005265747261637420A4
:103960005A6C696674005265747261637420737076
:103970006565640052657472616374206C656E677E
:1039800074680052657475726E006D6D006D6D2FF8
:10399000736563006D6D006D6D00726574726163B7
:1039A000745F7A6C696674006D6D2F736563005285
:1039B000657472616374207370656564006D6D0079
:1039C00052657472616374206C656E67746800522E
:1039D000455452414354494F4E0025004D61746592
:1039E0007269616C20666C6F7700250046616E20FD
:1039F00073706565640025005072696E7420737081
:103A00006565640054554E45004D373734205325C5
:103A10006C640D0A004D3737332053256C640D0A52
:103A2000004D373732205025690D0A002D2D3A2DD3
:103A30002D3A2D2D00814300814300486561746952
:103A40006E67206275696C64706C61746500814397
:103A50000081430048656174696E6700746F20637C
:103A60006F6E74696E756500507265737320627550
:103A700074746F6E005072696E74696E673A0054A8
:103A8000554E450050415553450050524550415206
:103A9000455F5052494E54494E475F53544F52452B
:103AA0005F46494E49534800505245504152455F88
:103AB0005052494E54494E475F53544F52455F4C04
:103AC00043445F43414348450050524550415245AD
:103AD0005F5052494E54494E475F53544F52455FD1
:103AE00053445F434C4153535F56414C4944415406
:103AF0004500505245504152455F5052494E54493D
:103B00004E475F53544F52455F53445F434C4153BC
:103B10005300505245504152455F5052494E54490E
:103B20004E475F434C4541525F53445550535F509D
:103B30004F534954494F4E5F56414C4944415445B7
:103B400000505245504152455F5052494E54494EE3
:103B5000475F434C4541525F53445550535F504F6C
:103B6000534954494F4E00505245504152455F50C1
:103B700052494E54494E475F494E49540050726570
:103B800070617265205072696E74696E673A005791
:103B9000414954494E4700507265706172696E67C1
:103BA00020746F207072696E743A004865617469A0
:103BB0006E672075702E2E2E0041424F52540053D6
:103BC000442073656172636820746F6F206C6F6E40
:103BD000670053442072656164206572726F7200E1
:103BE000454550524F4D2066696C6520706F736972
:103BF00074696F6E0053445550532056616C69646C
:103C00006174652077726F6E67005344555053534B
:103C1000746174652077726F6E67004D323520666F
:103C20006F756E64005A20646F65736E2774206D23
:103C3000617463680043414E43454C0072656C6596
:103C400061736520437573746F6D00666F756E6484
:103C500020437573746F6D003B545950453A43557A
:103C600053544F4D003B545950453A00666F756EA2
:103C700064206600666F756E64206500666F756E01
:103C800064207A00666F756E64207900666F756EC9
:103C9000642078007364206572726F7200746865C6
:103CA000206D6F64656C2E00596F752063616E2006
:103CB00072656D6F7665005072696E742066696E0C
:103CC0006973686564004241434B20544F204D4561
:103CD0004E55008143008143202020005072696EC0
:103CE00074657220636F6F6C696E6720646F776EA6
:103CF000004241434B20544F204D454E55005061EA
:103D00007573696E672E2E2E0057616974696E6730
:103D100000506175736520746865207072696E74F7
:103D20003F00594553004E4F004D32350053445526
:103D300050534C6173745A00534455505343757239
:103D400072656E74506F736974696F6E004C61793F
:103D500065723A003B4C415945523A007364206504
:103D600072726F7200536561726368696E67205387
:103D70004420636172642E2E2E0041424F52540043
:103D80006D616E75616C5F7365617263685F7364AA
:103D90005F63617264004C617965723A003B4C412B
:103DA0005945523A00536561726368696E672053E2
:103DB0004420636172642E2E2E0041424F52540003
:103DC0004732380043757272656E74205A3A00505B
:103DD0007265737320446F776E206F7220555000A8
:103DE0004C617374205072696E746564205A3A0095
:103DF000434F4E54494E554500434F4E54494E553E
:103E000045006865696768742E006F72206D616E89
:103E100075616C6C79207365742074686500436FFC
:103E20006E74696E756520746F20726573756D654B
:103E300000434F4E54494E5545004D414E55414C5F
:103E4000007072696E743F0077616E7420746F2029
:103E5000726573756D650066696E69736865642E59
:103E600020446F20796F75004C6173742070726903
:103E70006E74206973206E6F7400594553004E4F65
:103E80000052656164696E6720636172642E2E2E34
:103E900000506C6561736520696E73657274206390
:103EA000617264004E6F2053442D434152442100FF
:103EB0004732380A4D383400473932204525690ADF
:103EC0004731204625692045300000000A0B0209D1
:103ED0000C0D0E08070304010000000000000000A4
:103EE00000000000000000000000000000000000D2
:103EF000000000000000121110000000000000008F
:103F000000000000000000000000000000000000B1
:103F100001021020200808102040102040800201DB
:103F200002010804020101020408102040808040C0
:103F300020100804020180040201804020100804BF
:103F4000020108040201010204081020408001025D
:103F50000408102040800505050507050808080825
:103F6000020202020A0A0808040404040101010111
:103F7000010101010303030303030303040707070C
:103F80000C0C0C0C0C0C0C0C0202020206060606B1
:103F9000060606060B0B0B0B0B0B0B0B000022008F
:103FA000250028002B002E00310034000201000003
:103FB000050108010B0100002100240027002A0050
:103FC0002D003000330001010000040107010A0147
:103FD0004E414E494E495459494E46CDCCCC3D0AEE
:103FE000D7233C17B7D13877CC2B329595E6241FD1
:103FF000B14F0A000020410000C84200401C46208A
:10400000BCBE4CCA1B0E5AAEC59D7400407A10F35C
:104010005A00A0724E18090010A5D4E80000E876F6
:1040200048170000E40B54020000CA9A3B0000004D
:10403000E1F505000080969800000040420F000066
:1040400000A08601000000102700000000E8030027
:104050000000006400000000000A000000000001F1
:1040600000000000002C76D888DC674F0823DFC1F1
:10407000DFAE59E1B1B796E5E3E453C63AE65199AC
:104080007696E8E6C28426EB898C9B62ED407C6FD5
:10409000FCEFBC9C9F40F2BAA56FA5F490055A2A8C
:1040A000F75C936B6CF9676DC11BFCE0E40D47FE98
:1040B000F520E6B500D0ED902E030094357705008D
:1040C00080841E080000204E0A000000C80C333314
:1040D00033330F986E12831141EF8D2114893BE623
:1040E0005516CFFEE6DB18D1844B381BF77C1D90AC
:1040F0001DA4BBE424203284725E228100C9F12415
:10410000ECA1E53D27007A748B019F7411241FBE3A
:10411000CFEFD1E2DEBFCDBF00E00CBF14E0A0E0E6
:10412000B2E0EEECF2EE02E00BBF02C007900D929F
:10413000A03BB107D9F72BE1A0EBB4E001C01D9281
:10414000A134B207E1F711E4CAE0D1E400E006C00F
:1041500022970109FE010BBF0F947C66C630D10780
:1041600080E00807A9F70F94F3600D9455710C9443
:104170000000FC01148217821382128288EF93E000
:1041800091838083089528EF33E0FC0131832083FD
:104190002781222319F004960C949FA10895CF92B1
:1041A000DF92EF92FF920F931F93CF93DF93EC0177
:1041B000C196DFDFCE018E5A9F4FDBDF7E0121E704
:1041C000E20EF11C87016E0139E5C31A3EEFD30AF6
:1041D000C801CFDF015E1F4F0C151D05C9F7FE0199
:1041E000E755FE4F89E1818314823596178ACE0107
:1041F00084539E4FBEDFFE01E551FE4F10821182B7
:1042000012821382389610821182128213821A82CD
:104210001B8218AA188219826E0181E1C81A8EEFDA
:10422000D80AF6011082118212821382F8011082DC
:1042300086E391E0F7019C01119221503040E1F7B3
:10424000FE01E950FE4F81E080831FA61EA60F9459
:10425000F65E68577C4E8F4F9F4FF60160837183E7
:1042600082839383DF91CF911F910F91FF90EF9005
:10427000DF90CF900895FC0120E03EE2DB014C91FD
:10428000403241F0283011F430833196DB014C91FB
:10429000408331962F5F6F5F7F4F2B3079F710820D
:1042A00008953F924F925F926F927F928F929F926A
:1042B000AF92BF92CF92DF92EF92FF920F931F9334
:1042C000CF93DF93CDB7DEB7C758D1090FB6F894B7
:1042D000DEBF0FBECDBF8C016B017A01312C84E0B3
:1042E000E80EF11C2801E2E14E0E511C5801F8E0E5
:1042F000AF1AFEEFBF0A480186E0881A8EEF980ACF
:1043000080E4682E712C6C0E7D1EE4E06E0E711C34
:10431000A201BE016F5F7F4FC7010E9408A018165F
:104320000CF021C12C85322F3871303109F09CC03E
:10433000F501808191810197029708F495C0BE0133
:104340006F5F7F4FCE0187589F4F95DFA0961FAEBE
:10435000A097F6018081811107C06AEC72E0CE015E
:10436000815A9F4F0F94596BB601CE01815A9F4FCE
:104370000F94596BBE0167587F4FCE01815A9F4FF2
:104380000F94596B6AEC72E0CE01815A9F4F0F94E3
:10439000596BCE01805C9F4FECDE21E0AE014758A7
:1043A0005F4FB701C3010E9498A3811139C0F50185
:1043B00080819181892BA1F5E7E5F6E0849188233E
:1043C00041F09091C00095FFFCCF8093C6003196DC
:1043D000F5CFECECF2E08191882339F09091C000A8
:1043E00095FFFCCF8093C600F6CF8091C00085FF7B
:1043F000FCCF8AE08093C600FE01E758FF4F819111
:10440000882339F09091C00095FFFCCF8093C600BF
:10441000F6CF8091C00085FFFCCF8AE08093C60074
:104420008BE1FE01EC5BFF4FDE01959601900D9252
:104430008A95E1F724968EAD9FAD24979CA38BA31C
:1044400088EF93E09AA389A3AE014F5D5F4FBE0151
:10445000615A7F4FC80125DFCE01819694DECE01DF
:10446000805C9F4F90DE54CF8981882309F47BC004
:10447000853E09F44DCF8E3209F44ACF8F3509F4C9
:1044800047CFF8018289882331F08E3209F440CF7A
:104490008F3509F43DCF23FD3BCF81E0303109F06A
:1044A00080E0F80185A7811108C08985873409F06B
:1044B0002FCF8A858E3709F42BCF98012B5F3F4F82
:1044C000BE016F5F7F4FC901CA57DF4F2883C658AF
:1044D000D040C957DF4F3883C758D040CCDEF501F4
:1044E00080819181CA57DF4F2881C658D040C95773
:1044F000DF4F3881C758D0400097F1F4F601819121
:10450000882339F09091C00095FFFCCF8093C600BE
:10451000F6CFF9018191882339F09091C00095FF81
:10452000FCCF8093C600F6CF8091C00085FFFCCF02
:104530008AE08093C600ECCE8130910539F4F40115
:1045400080819181019691838083E2CE029709F068
:10455000DFCE232D30E0F4018081918128173907C7
:1045600011F03394D5CEC957DF4F0FB6F894DEBFA4
:104570000FBECDBFDF91CF911F910F91FF90EF90B4
:10458000DF90CF90BF90AF909F908F907F906F9073
:104590005F904F903F900895EF92FF920F931F937B
:1045A000CF93DF93CDB7DEB76F970FB6F894DEBF2A
:1045B0000FBECDBF8C01FC01E850FE4F118210826E
:1045C0007C0185E3E80EF11C40E050E0BA01C70130
:1045D0000E94BBA08BE1F701DE01159601900D92C0
:1045E0008A95E1F7F80183A994A99C838B8388EFCE
:1045F00093E09A838983AE014F5F5F4F67EB73E06F
:10460000C8014FDECE010196BEDD6F960FB6F8945D
:10461000DEBF0FBECDBFDF91CF911F910F91FF90F5
:10462000EF9008952BE1FB013496DC011496019084
:104630000D922A95E1F7FB0122813381FC0133833E
:1046400022830895EF92FF920F931F93CF93DF93EE
:10465000EC0118AA88AD882321F0CE01C5960E94EE
:104660009FA17E0187E5E81A8EEFF80A45E360E036
:10467000C7010E94F49A811131C0E7E5F6E0849108
:10468000882341F09091C00095FFFCCF8093C60035
:104690003196F5CFEAE4F6E08491882341F09091D9
:1046A000C00095FFFCCF8093C6003196F5CF809176
:1046B000C00085FFFCCF8AE08093C600FE01E6556E
:1046C000FE4F608170E04AE050E08EE89CE00E947E
:1046D000DB758091C00085FFFCCF76C08E0102554E
:1046E0001E4F41E0B701C8010E940EAC811126C0E7
:1046F00040E0B701C8010E940EAC81111FC0EDE57A
:10470000F6E08491882341F09091C00095FFFCCFA2
:104710008093C6003196F5CFE7E3F6E084918823D5
:1047200041F09091C00095FFFCCF8093C600319678
:10473000F5CF8091C00085FFFCCF46C0B801CE0107
:10474000C5960E94AA9E81111FC0EDE5F6E08491F6
:10475000882341F09091C00095FFFCCF8093C60064
:104760003196F5CFE7E2F6E08491882341F090910D
:10477000C00095FFFCCF8093C6003196F5CF8091A5
:10478000C00085FFFCCF20C081E088ABE7E5F6E004
:104790008491882341F09091C00095FFFCCF8093D5
:1047A000C6003196F5CFECE1F6E08491882341F024
:1047B0009091C00095FFFCCF8093C6003196F5CF55
:1047C0008091C00085FFFCCF8AE08093C6008E01F7
:1047D0000F5C1F4FB801CE018E5A9F4F23DFC05B85
:1047E000DF4F19830883DF91CF911F910F91FF90C5
:1047F000EF900895FC011282138210AA0895FC0123
:1048000080A9882319F081E0828313820895FC0136
:104810002281222311F021E0238308952F923F92D9
:104820004F925F926F927F928F929F92AF92BF92C0
:10483000CF92DF92EF92FF920F931F93CF93DF936C
:10484000CDB7DEB7AD970FB6F894DEBF0FBECDBFC4
:104850007C016B014DA7FC0180A9882309F4A5C147
:104860004701F0E38F1AFEEF9F0AC4010E949FA147
:10487000F70112821382CE0101965C017ADC1701E6
:1048800090E5290E311CC701C196F1019183808307
:10489000F60180818F3209F081C06FE270E0C601BD
:1048A0000F94646B8C010F5F1F4F0230110508F4E9
:1048B0007BC06FE270E0C8010F94646B2C0100971D
:1048C00009F473C00817190708F06FC03C01601A9B
:1048D000710AA301B801CE0180960F94846BE0E2C7
:1048E000F0E0EC0FFD1FE60DF71D1082FE01B09603
:1048F0008191882339F09091C00095FFFCCF80937F
:10490000C600F6CF8091C00085FFFCCFFAE0F0939F
:10491000C600F101608171816115710519F06C5F4C
:104920007F4F02C060E070E021E0AE01405E5F4F6B
:10493000CE0105960E9498A381112BC0E8E0F6E015
:104940008491882341F09091C00095FFFCCF809323
:10495000C6003196F5CFFE01B0968191882339F0DB
:104960009091C00095FFFCCF8093C600F6CFE6E0A3
:10497000F6E08491882341F09091C00095FFFCCF30
:104980008093C6003196F5CF8091C00085FFFCCFA3
:1049900007C1F101B182A082820185CFC7018E5A81
:1049A0009F4FF101918380838601FDA5FF2309F4C8
:1049B0009CC0F101608171816115710519F06C5F16
:1049C0007F4F02C060E070E021E0A801C4010E94B6
:1049D00098A3882309F45FC0F40181899289A3898F
:1049E000B489F701E551FE4F80839183A283B3839D
:1049F000E8EFF5E08491D701A551BE4F882349F037
:104A00009091C00095FFFCCF8093C60031968491B1
:104A1000F5CFF8018191882339F09091C00095FF7E
:104A2000FCCF8093C600F6CFE0EFF5E084918823B9
:104A300041F09091C00095FFFCCF8093C600319665
:104A4000F5CF4D915D916D917C912AE030E08EE83B
:104A50009CE00E9407768091C00085FFFCCF8AE031
:104A60008093C600F701ED50FE4F10821182128232
:104A70001382E2EEF5E08491882341F09091C0002A
:104A800095FFFCCF8093C6003196F5CF8091C00092
:104A900085FFFCCF85C0EEECF5E08491882341F0E2
:104AA0009091C00095FFFCCF8093C6003196F5CF62
:104AB000F8018191882339F09091C00095FFFCCFD7
:104AC0008093C600F6CFECECF5E08491882341F0AA
:104AD0009091C00095FFFCCF8093C6003196F5CF32
:104AE0008091C00085FFFCCF5BC0F10160817181C6
:104AF0006115710519F06C5F7F4F02C060E070E0D6
:104B000026E5A801C4010E9498A381112AC0E8EB00
:104B1000F5E08491882341F09091C00095FFFCCF8F
:104B20008093C6003196F5CFF8018191882339F042
:104B30009091C00095FFFCCF8093C600F6CFE6EBC6
:104B4000F5E08491882341F09091C00095FFFCCF5F
:104B50008093C6003196F5CF8091C00085FFFCCFD1
:104B60001FC081E0F7018083E4EAF5E084918823A7
:104B700041F09091C00095FFFCCF8093C600319624
:104B8000F5CFF6018191882339F09091C00095FF0F
:104B9000FCCF8093C600F6CF8091C00085FFFCCF8C
:104BA0008AE08093C600C501EEDAAD960FB6F894A0
:104BB000DEBF0FBECDBFDF91CF911F910F91FF9050
:104BC000EF90DF90CF90BF90AF909F908F907F90AD
:104BD0006F905F904F903F902F90089521E0FC01DF
:104BE000218340E01BCE3F924F925F926F927F9263
:104BF0008F929F92AF92BF92CF92DF92EF92FF92ED
:104C00000F931F93CF93DF93CDB7DEB7AC970FB65B
:104C1000F894DEBF0FBECDBF7C015B01FC0180A913
:104C2000882309F401C1C70180539E4F0E949FA1B0
:104C3000F70112821382CE0101966C019ADA2701E4
:104C400090E5490E511CC701C196F2019183808302
:104C5000F50180818F3209F084C06FE270E0C501F8
:104C60000F94646B8C010F5F1F4F9AE0392E011572
:104C7000110509F47CC06FE270E0C8010F94646B09
:104C80004C01009709F474C00817190708F070C0A8
:104C90003C01601A710AA301B801CE0180960F94FD
:104CA000846BE0E2F0E0EC0FFD1FE60DF71D1082D3
:104CB000FE01B0968191882339F09091C00095FF54
:104CC000FCCF8093C600F6CF8091C00085FFFCCF5B
:104CD0003092C600F201608171816115710519F091
:104CE0006C5F7F4F02C060E070E021E0AE01405E8B
:104CF0005F4FCE0105960E9498A381112BC0E0E979
:104D0000F5E08491882341F09091C00095FFFCCF9D
:104D10008093C6003196F5CFFE01B096819188232D
:104D200039F09091C00095FFFCCF8093C600F6CF7C
:104D3000EEE8F5E08491882341F09091C00095FF62
:104D4000FCCF8093C6003196F5CF8091C00085FFDF
:104D5000FCCF65C0F201D182C08284010F5F1F4F7A
:104D600086CFC7018E5A9F4FF201918380838501C0
:104D7000F20180819181009711F0049602C080E0D9
:104D800090E0B8010E946EA4882301F1E0E8F5E00C
:104D90008491882341F09091C00095FFFCCF8093CF
:104DA000C6003196F5CFF8018191882339F09091B2
:104DB000C00095FFFCCF8093C600F6CFF701ED5001
:104DC000FE4F10821182128213822CC0E8E6F5E0B9
:104DD0008491882341F09091C00095FFFCCF80938F
:104DE000C6003196F5CFF8018191882339F0909172
:104DF000C00095FFFCCF8093C600F6CFE6E6F5E055
:104E00008491882341F09091C00095FFFCCF80935E
:104E1000C6003196F5CF8091C00085FFFCCF8AE0B7
:104E20008093C600C601AFD9AC960FB6F894DEBF2A
:104E30000FBECDBFDF91CF911F910F91FF90EF90EB
:104E4000DF90CF90BF90AF909F908F907F906F90AA
:104E50005F904F903F900895CF93DF93EC0188A926
:104E6000882309F439C0E4E5F5E08491882341F012
:104E70009091C00095FFFCCF8093C6003196F5CF8E
:104E8000FE01ED50FE4F40815181628173812AE025
:104E900030E08EE89CE00E940776E2E5F5E0849140
:104EA000882341F09091C00095FFFCCF8093C6000D
:104EB0003196F5CFFE01E551FE4F4081518162816F
:104EC00073812AE030E08EE89CE00E9407768091B2
:104ED000C00085FFFCCF11C0E2E4F5E08491882397
:104EE00041F09091C00095FFFCCF8093C6003196B1
:104EF000F5CF8091C00085FFFCCF8AE08093C6008B
:104F0000C655DE4F88818823E1F0E6E3F5E0849121
:104F1000882341F09091C00095FFFCCF8093C6009C
:104F20003196F5CF688170E04AE050E08EE89CE071
:104F30000E94DB758091C00085FFFCCF8AE08093E2
:104F4000C600DF91CF910895AF92BF92CF92DF92CA
:104F5000EF92FF920F931F93CF93DF935C01EB01CE
:104F6000FB0101900020E9F78F0101501109061B98
:104F7000170B6C01F0E3CF1AFEEFDF0AF601108287
:104F80006EE470E0CE010F94646B7C01009729F40D
:104F9000F8013197EC0FFD1F0DC060E270E00F9437
:104FA000646BEC0121966AE270E0C7010F94646BB8
:104FB000FC0131978DE081838AE082831382BE01F8
:104FC000C50184539E4F0E9434A6F6018081882338
:104FD00009F1EDE5F6E08491882341F09091C0005D
:104FE00095FFFCCF8093C6003196F5CFE0E2F5E067
:104FF0008491882341F09091C00095FFFCCF80936D
:10500000C6003196F5CF8091C00085FFFCCF8AE0C5
:105010008093C600DF91CF911F910F91FF90EF9089
:10502000DF90CF90BF90AF9008952F923F924F9214
:105030005F926F927F928F929F92AF92BF92CF9228
:10504000DF92EF92FF920F931F93CF93DF93CDB731
:10505000DEB7CC55D1090FB6F894DEBF0FBECDBF79
:105060008C0189509E4F5C01662339F0F501108256
:10507000F80180A981111DC015C0FC018081882321
:1050800009F4B3C0F801E151FE4FC080D180E28045
:10509000F3800F94F65EC616D706E806F90608F404
:1050A000A4C0E4CFC801CEDAF80180A9882309F4AE
:1050B0009CC0F80187A58F9386A58F9387E195E023
:1050C0009F938F937E01FFE3EF0EF11CFF92EF920F
:1050D0000F94F56B0F900F900F900F900F900F9013
:1050E000B12CF70101900020E9F73197EE19FF0983
:1050F000BE1684F46701CB0CD11CB7FCDA94F60120
:105100008081992787FD90950F94BA6AF601808374
:10511000B394E7CF4801F5E38F0E911C40E050E0D7
:10512000BA01C4010E94BBA0512CCE0101966C01B2
:1051300020E1622E25E0722E5E0191E2A90EB11CE3
:1051400040E050E0B601C4010E9408A01816DCF54A
:10515000412CF60101900020E9F73197EC19FD0987
:105160004E1674F41601240C311C47FC3A94F101DC
:10517000808190E00F94BA6AF10180834394E9CF73
:105180008A858E37E9F245E050E0B701C6010F94F9
:10519000766B892BA9F6FF92EF927F926F92BF9266
:1051A000AF920F94F56BC5010E948D3D8CE095E0A8
:1051B0000E94373E0F900F900F900F900F900F901E
:1051C00055245394BDCF511004C08FEF9FEFF801C9
:1051D00006C010921A02F80186A597A5019697A716
:1051E00086A7F801E655FE4F1082C45ADF4F0FB66E
:1051F000F894DEBF0FBECDBFDF91CF911F910F910D
:10520000FF90EF90DF90CF90BF90AF909F908F90E6
:105210007F906F905F904F903F902F9008950F93E5
:105220001F93CF93DF93EC018C0100531E4FC801F5
:105230000E9455A1C8010E949FA118821982DF9186
:10524000CF911F910F910895EF92FF920F931F93AB
:10525000CF93DF93CDB7DEB76F970FB6F894DEBF6D
:105260000FBECDBF8C017C0180E5E80EF11CC801AA
:105270008E5A9F4FF70191838083E855FE4F22E0BD
:1052800030E031832083329670E07183608340E0A8
:1052900050E0BA0104960E94BBA0F7018081918181
:1052A0002BE1FC013496DE01159601900D922A95B2
:1052B000E1F7FC01828193819C838B8388EF93E0EB
:1052C0009A838983AE014F5F5F4F67EB73E0C8013C
:1052D0000E945121CE0101960E94C3206F960FB605
:1052E000F894DEBF0FBECDBFDF91CF911F910F911C
:1052F000FF90EF900895CF92DF92EF92FF920F937D
:105300001F93CF93DF93CDB7DEB76F970FB6F894A7
:10531000DEBF0FBECDBF8C016C0120E5C20ED11CDB
:105320008E5A9F4FF60191838083E855FE4F21E00E
:1053300030E0318320837801F6E0EF1AFEEFFF0AB8
:10534000F7011182108240E050E0BA0104960E94F9
:10535000BBA0F601808191812BE1FC013496DE0136
:10536000159601900D922A95E1F7FC0182819381B7
:105370009C838B8388EF93E09A838983AE014F5F90
:105380005F4F67EB73E0C8010E945121CE01019687
:105390000E94C320F701808191816F960FB6F89427
:1053A000DEBF0FBECDBFDF91CF911F910F91FF9058
:1053B000EF90DF90CF9008954F925F926F927F921F
:1053C0008F929F92AF92BF92CF92DF92EF92FF9215
:1053D0000F931F93CF93DF93CDB7DEB76F970FB6C1
:1053E000F894DEBF0FBECDBF8C017B01CE010196CC
:1053F0000E94B920F801E75AFF4F808168018111AE
:1054000004C081E3C80ED11C03C092E5C90ED11CB3
:1054100021E0A701B6016C5F7F4FCE0105960E9487
:1054200098A381112DC0E7E5F6E08491882341F02F
:105430009091C00095FFFCCF8093C6003196F5CFC8
:10544000E6EFF4E08491882341F09091C00095FF4D
:10545000FCCF8093C6003196F5CFF7018191882368
:1054600039F09091C00095FFFCCF8093C600F6CF35
:105470008091C00085FFFCCF8AE08093C60038C0D1
:10548000F801E955FE4F80818A3058F58F5F80839F
:10549000A82EB12C38019FE1899F600C711C11244A
:1054A000E12CF12C412C512C430182E5880E911CFA
:1054B00091E7690E711CA414B50471F0B4016E0D6E
:1054C0007F1DC3018E0D9F1DADD88FEF481A580A5E
:1054D0009FE1E91AF108EFCFB601C8018F589F4F3D
:1054E000A1D8BE016F5F7F4FC8018E5A9F4F9AD8D7
:1054F000CE0101960E94C3206F960FB6F894DEBFCE
:105500000FBECDBFDF91CF911F910F91FF90EF9014
:10551000DF90CF90BF90AF909F908F907F906F90D3
:105520005F904F900895EF92FF920F931F93CF9348
:10553000DF93EC018C0109551E4FF801808188230F
:1055400049F181508083BE016F587F4FCE018E5A42
:105550009F4F68D8F12C3FE1E32EF8018081F816C7
:10556000C8F42F2D30E0C9010196E89EB001E99EF4
:10557000700D11246F587F4F6C0F7D1FE29EC0018C
:10558000E39E900D11248F589F4F8C0F9D1F4AD87A
:10559000F394E3CFDF91CF911F910F91FF90EF90A4
:1055A0000895CF93DF93EC010E94ABB40E941BB52A
:1055B000CE0180539E4F0E949FA11A821B828AEEC9
:1055C00094E0DF91CF910C94373EEF92FF920F93CE
:1055D0001F93CF93DF93EC017B018A01F701619167
:1055E0007F01888199810F943C6E88819981019611
:1055F000998388830150110989F7DF91CF911F9119
:105600000F91FF90EF900895EF92FF920F931F93E9
:10561000CF93DF938C01EB017A01E60EF71EF801C0
:10562000808191810F94216E8993F801808191810D
:10563000019691838083CE15DF0589F7DF91CF91A5
:105640001F910F91FF90EF9008950F931F93CF93A9
:10565000DF93CDB7DEB766970FB6F894DEBF0FBE07
:10566000CDBF80E390E3A0E3B0E08D839E83AF8362
:10567000B88704E610E01E8B0D8B44E050E0BE01BD
:105680006B5F7F4FCE014596A0DF40E150E069E5BA
:1056900072E1CE01459699DF40E150E069E672E1A2
:1056A000CE01459692DF40E150E065E472E1CE0123
:1056B00045968BDF44E050E06DE372E1CE01459604
:1056C00084DF44E050E069E372E1CE0145967DDF7E
:1056D00044E050E061E472E1CE01459676DF44E0BB
:1056E00050E069E272E1CE0145966FDF44E050E0A0
:1056F00069E772E1CE01459668DF44E050E065E37A
:1057000072E1CE01459661DF44E050E061E372E171
:10571000CE0145965ADF44E050E06DE272E1CE01E1
:10572000459653DF4CE050E06EE67AE0CE014596B8
:105730004CDF8CED90E09C8B8B8B86E490E09A8B19
:10574000898B188A1F8680EF90E09E878D871C8743
:105750000B871A86198642E050E0BE016D5E7F4FCE
:10576000CE01459632DF42E050E0BE016F5E7F4FD2
:10577000CE0145962ADF42E050E0BE01615F7F4FD7
:10578000CE01459622DF42E050E0BE01635F7F4FCD
:10579000CE0145961ADF42E050E0BE01655F7F4FC3
:1057A000CE01459612DF42E050E0BE01675F7F4FB9
:1057B000CE0145960ADF44E050E06DE772E0CE018D
:1057C000459603DF44E050E069E772E0CE0145967C
:1057D000FCDE44E050E065E772E0CE014596F5DE80
:1057E00041E050E062E872E0CE014596EEDE41E035
:1057F00050E060E475E1CE014596E7DE44E050E01C
:1058000064E275E0CE014596E0DE44E050E060E2FF
:1058100075E0CE014596D9DE44E050E066E172E0E5
:10582000CE014596D2DE44E050E06DE977E0CE014E
:105830004596CBDE44E050E06CE175E0CE01459644
:10584000C4DE44E050E068E175E0CE014596BDDE7F
:1058500044E050E062E172E0CE014596B6DE48E1F8
:1058600050E068EF74E0CE014596AFDE44E050E0D2
:105870006FE272E0CE014596A8DE44E050E06BE2B4
:1058800072E0CE014596A1DE44E050E063E272E0B2
:10589000CE0145969ADE86E591E3A5E3B0E08983E3
:1058A0009A83AB83BC831E8B0D8B44E050E0BE011A
:1058B0006F5F7F4FCE01459688DEE9EBF8E084917B
:1058C000882341F09091C00095FFFCCF8093C600E3
:1058D0003196F5CFE9EAF8E08491882341F0909180
:1058E000C00095FFFCCF8093C6003196F5CF809124
:1058F000C00085FFFCCF8AE08093C60066960FB695
:10590000F894DEBF0FBECDBFDF91CF911F910F91F5
:105910000895CF93DF93C9EBD8E0FE0184918823EB
:1059200041F09091C00095FFFCCF8093C600319666
:10593000F5CFE9E9F8E08491882341F09091C00027
:1059400095FFFCCF8093C6003196F5CF8091C000C3
:1059500085FFFCCF8AE08093C600FE018491E9EBCD
:10596000F8E0882349F09091C00095FFFCCF809328
:10597000C60031968491F5CF4091591250915A1238
:1059800060915B1270915C1281E998E00E944C3D3D
:1059900040915D1250915E1260915F1270916012A1
:1059A0008EE898E00E944C3D409161125091621245
:1059B00060916312709164128BE898E00E944C3DF4
:1059C0004091651250916612609167127091681251
:1059D00088E898E00E944C3D8091C00085FFFCCF94
:1059E0008AE08093C600FE018491E9EBF8E0882309
:1059F00049F09091C00095FFFCCF8093C60031968E
:105A00008491F5CFEEE6F8E08491882341F09091FF
:105A1000C00095FFFCCF8093C6003196F5CF8091F2
:105A2000C00085FFFCCF8AE08093C600FE01849110
:105A3000E9EBF8E0882349F09091C00095FFFCCF96
:105A40008093C60031968491F5CF409169125091B0
:105A50006A1260916B1270916C1285E698E00E9458
:105A60004C3D40916D1250916E1260916F12709189
:105A7000701282E698E00E944C3D40917112509164
:105A8000721260917312709174128FE598E00E9407
:105A90004C3D409175125091761260917712709141
:105AA00078128CE598E00E944C3D8091C00085FF03
:105AB000FCCF8AE08093C600FE018491E9EBF8E018
:105AC000882349F09091C00095FFFCCF8093C600D9
:105AD00031968491F5CFEEE3F8E08491882341F08C
